:020000040000FA
:1000000098682020D5000000D9000000DB00000027
:1000100000000000000000000000000000000000E0
:10002000000000000000000000000000951A000021
:100030000000000000000000511A0000A121000093
:10004000E3000000E3000000ED210000E3000000F9
:10005000E3000000D9130000E3000000E30000000B
:1000600000000000E3000000E300000000000000CA
:1000700000000000E3000000E30000000522000093
:10008000CF210000D9210000E3000000C5210000BD
:10009000E3210000E3000000000000000000000079
:1000A000E3000000E300000000000000000000008A
:1000B000E300000000000000E3000000351A00002B
:1000C0000348854600F084FF00480047A54E010024
:1000D0009868202003480047FEE7FEE7FEE7FEE7BA
:1000E000FEE7FEE7C1000000F0B51FB406460020A1
:1000F00082B005464024019100901BE00199224600
:100100000F46304600F0A0FC049A059B801A9941E6
:1001100010D310461946224600F086FC361A8F414D
:100120000197224601200021009F00F07DFC381835
:100130004D4100902046641E0028DFDC019B0098A2
:100140002946324607B0F0BDF8B5002425460029FF
:1001500004DA0E46012400214042B141002B04DAAA
:100160001E46002352420125B341FFF7BDFF8C46D6
:1001700017461E46AC4203D0002540428D41AC4696
:10018000002C02D0002657429E4161463A46334633
:1001900001B0F0BD30B5434351435C18010C130C62
:1001A0000D465D432C1980B292B20546554351432A
:1001B0000A0C09044D1962415843010C000440190E
:1001C000514130BD03460B439B0703D009E008C9EA
:1001D000121F08C0042AFAD203E00B780370401CF7
:1001E000491C521EF9D27047D2B201E00270401C85
:1001F000491EFBD270470022F6E710B513460A46A7
:1002000004461946FFF7F0FF204610BDCAB2401E53
:100210004178401C8A4202D00029F9D10020704761
:10022000421C0178401C0029FBD1801A704730B570
:1002300004460020034600E05B1C934203D2E05CCE
:10024000CD5C401BF8D030BDF7B5009C0F460026B2
:100250002578641C002D05D000F01AFC0068405D74
:10026000C007F5D12B2D02D02D2D18D0641E394694
:100270002046029A00F019FC002F04D03968A142F0
:1002800001D1009939607105022400290BDA40423E
:10029000002803DD16F062FE0460A007FEBD012009
:1002A00080020643E3E70028F8DA16F057FE046000
:1002B0000048FEBDFFFFFF7F70B5064616F04EFEFC
:1002C000046805460A2200213046FFF7BDFF2C6076
:1002D00070BDF8B502464A40D40F42004B005208A8
:1002E0005B089A4202D20246084611464A0023D0D1
:1002F000C30D4A00DDB2120EAD1A202D35DA4902C7
:100300000126490AF6058A19002C00D05242202104
:100310004F1B1146B9402A411018C20D9A4221D0F4
:10032000002C17D0012D08DCDA05801AD20F8019B5
:10033000D207DBB200F074FCF8BDDA05801A0123A5
:1003400040001B06C01880185A428018CA0F10437C
:10035000490007E04908C2071143DA05801A8019ED
:100360004008801800F054FCF8BD61000122511AC9
:10037000001BF7E70122D2075140AAE70122D2076A
:100380005040A6E7024670B54A40D30FDB07400055
:100390002DD04A002AD0010E140E000212020919B3
:1003A000400A520A8418E50104465443000A120A1E
:1003B0002E045043A4194219200CC543AA18120C4C
:1003C0000125AD03521C521912047F39240400D0B8
:1003D000521C104301D44000491EC2B20C06C00991
:1003E0002018401C4008802A02D003E0002070BD85
:1003F00040084000002900DA0020184370BD70B5A5
:1004000002464A40D50F40004A00ED074008520816
:10041000002814D0002A12D0C40DD30D41020120AF
:10042000C0055202490A520AE41A091812187D340A
:10043000914201D3641C00E04900002C01DA002045
:1004400070BD0023914201D3891A0343400849003B
:100450000028F7D100290AD0914202D10121C90711
:1004600005E0914201D2012101E00121C943E005EB
:10047000C018401900F0CCFB70BD0000F0B5074675
:100480000846584087B0C00F049048000E465900F7
:1004900040084908BC1A884105D2384631461E46F4
:1004A00017460B4602465800400810434CD0300D0A
:1004B000039040055900400D490D0590401A0290E7
:1004C000402872DA18030121000B09050843019046
:1004D00004980092002805D00199524200208841DA
:1004E00000920190029840210A1A0199009800F0A8
:1004F0009BFA05460C466B4607CB00F0B6FAC019CE
:100500007141039A0E0D0023D71756401A467A40C0
:10051000164344D0049A002A2DD0029A012A039A45
:1005200015DC1205C01A914101263605001C7141E7
:10053000D20F059ED2070093019202962A462346C7
:1005400000F00BFC07B0F0BD38463146FAE716055F
:10055000224A0F46B218C01AB74101210905001CF2
:100560004F4100187F41114618187941E20F10439E
:100570006D19644113E0E2076D0815436408C20772
:100580001443039A01261205C01A91413605001C36
:100590007141CE07400830434908C01851412A46EE
:1005A000234600F0CDFBCDE7FFE704980122400091
:1005B000C117121A00238B4104983146C417381A08
:1005C000A141EEE730B40124E407634030BC55E7B5
:1005D00030B40124E407614030BC4FE70000E0FF85
:1005E000F0B51FB488B00B990998002448400999C8
:1005F000C00F490049080991C0070B9900904900B4
:1006000049080B9109990898A64608431CD00B99F4
:100610000A98084318D0099801244000420D480068
:10062000410D099824050003000B204309900B9805
:100630000003000B20430B9050181C494018002267
:1006400001901446104605E0002001460DB0F0BDB3
:10065000032801DA034600E003239C46C11A0AAED0
:100660000AE05F0008ADED5B4F00F75B7D430027BC
:10067000AA187C41491C5B1E6145F2DD410004ABB8
:100680005A522104120C0A43240C401C0828DFDBB8
:10069000019802900099704601910090059B049A80
:1006A0000799069800F059FBD0E700000DFCFFFF0A
:1006B000F0B50C465C4085B0E40FE40703944C00B1
:1006C00000266408590094464908024602962243CF
:1006D00021D062460A431ED06200570D4A000E0325
:1006E0002303550D012402462C492405781B1B0BBE
:1006F000360B401823432643614600901C46501A8F
:10070000B44103D30098401C009002E09218009876
:100710005B41002803DA0020014605B0F0BD00204F
:10072000012109050746864611E064461D46141B53
:10073000B54106D36546521BB341744607430C438B
:10074000A646CD0740084908284392185B41054654
:100750000D43EAD11046184313D060461946504065
:100760007140084306D06046101AB34106D20122F8
:10077000002306E000220123DB0702E00122D2432E
:100780005310009874460105381C6141029C039D7A
:100790000019694100F0D4FABFE70000FD03000032
:1007A0000122D207002800DB101A002900DB511AB1
:1007B000814201D801207047002070470122D207F2
:1007C000002800DB101A002900DB511A814201D2F7
:1007D00001207047002070470122D207002800DB6B
:1007E000101A002900DB511A814201D30120704701
:1007F000002070470122D207002800DB101A0029D0
:1008000000DB511A814201D9012070470020704756
:100810000122D207002800DB101A002900DB511A40
:10082000814201D1012070470020704710B5002996
:1008300004DB0C460121C9074042A141002B04DB27
:100840001C460123DB075242A341801A994101D380
:10085000012010BD002010BD10B5002904DB0C469E
:100860000121C9074042A141002B04DB1C460123A2
:10087000DB075242A341801A994101D2012010BDE9
:10088000002010BDC217C10F504010B54018CA0754
:100890009623002100F0C4F910BD10B50022962364
:1008A000114600F0BDF910BD0EB5054902910021B9
:1008B00000910A460B46019100F04FFA03B000BDCB
:1008C000330400000EB5054A02920022009213463E
:1008D000019200F042FA03B000BD000033040000B2
:1008E000C20F410040020123400ADB05D207090E76
:1008F000C0187F2901DA00207047962903DC96236F
:10090000591AC84001E096398840002AF4D0404284
:100910007047410040020122400AD205090E8018AA
:100920007F2901DA00207047962903DC9622511AAC
:10093000C8407047963988407047C20FD2074000C0
:1009400040080BD0C10D0723DB01C918400209057F
:10095000400A1143C2084007114370470020014676
:100960007047CB0FDB07490010B5490802460A4320
:1009700007D00A0D07240903E401090B121B002A02
:1009800001DC002010BDC900440F0C43C100E01879
:10099000D205801800F03CF910BD70B5044600295E
:1009A00003D000202022012310E0002801D00020E5
:1009B000C043C046C0460DE02546D5408D4205D314
:1009C0000D469540641B1D46954040191546521E24
:1009D000002DF1DC214670BD70B5002504462E4681
:1009E000002911D0002C01DA01254442002901DA46
:1009F000012649422046FFF7D0FFB54200D04042D1
:100A0000002D00D0494270BD002C02DA0121C90737
:100A100002E0002C00DD03490846C046C0462146DE
:100A200070BD0000FFFFFF7F10B5202A04DB0146E8
:100A3000203A9140002010BD914020239C1A03468B
:100A4000E3401943904010BD10B5202A04DB08464E
:100A5000203AD040002110BD0B46D340D040202486
:100A6000A21A91400843194610BD10B5202A06DB92
:100A7000CB170846203A1041C1170B4306E00B463E
:100A80001341D0402024A21A91400843194610BDBA
:100A9000004870472481010010B50446FFF7F8FFB5
:100AA0000068005DC007C00F10BDF7B582B0029CA2
:100AB00000272078641C15460197302802D0002DAD
:100AC00015D015E020780127641C782804D0582818
:100AD00002D0002D09D00BE0002D01D0102D07D140
:100AE000002710252078641C02E0082500E00A2574
:100AF0000026009610E00099012769430818020CAF
:100B0000294680B2714300908E183804864201D382
:100B1000012001902078641C294600F071FA002819
:100B2000E9DA0398002805D0002F01D0641E00E008
:100B3000029C04600198002806D016F00FFA0221EA
:100B40000160C81E05B0F0BD009930040843F9E704
:100B50000FB400B589B00A460DA9009100230C9985
:100B6000002ACB60234B0693234B079301D0042329
:100B700000E00023214A0292214A08920193024692
:100B80006B46002000F0DBFA09B008BC04B018473F
:100B9000F0B585B007460020C04301901E460020F6
:100BA00015460C460091029104903B466A46314638
:100BB00004A8FFF7CDFF049902466018002D05D068
:100BC000002901D0034600E023462B6000290ED007
:100BD000002A02DD0099814209D0001B0190009497
:100BE0003B466A463146029404A8FFF7B1FF05B0C0
:100BF000F0BD000095130000B5130000FFFFFF7F5C
:100C0000990A000010B500230360FFF7C1FF10BD73
:100C1000002904DA401C490001D140084000704717
:100C200070B40024050C05D11024000402D1002961
:100C300021D01124050E01D100020834050F01D185
:100C40000001241D850F01D18000A41C002801DBB8
:100C50004000641C002908D020252E1B0D46F540BD
:100C6000A14000D001212943084301061B1B000AB3
:100C7000DB1D02D5002070BC7047DB0518188018FA
:100C80000029F8DA401C4900F5D170BC400840004A
:100C90007047420005D04200120E52428A4201DBE8
:100CA00000207047C9050818704770B5002801DC9E
:100CB000002070BD410040020126400AF605090EE1
:100CC0008019CA0701D14000491E4D10002211466B
:100CD0003F353346CB409B18D418844201D8001BC3
:100CE0001A464000491C1729F3DD5100814202D207
:100CF0000021C94300E00021E8058018FFF788FFC4
:100D000070BD10B541000DD04100090E962909DCD7
:100D10007E290ADC07DB410205D0C00F7F21C00716
:100D2000C905401810BD002010BD9622541A20217C
:100D30000A1B01469140E040FFF76AFFA04010BD4A
:100D400010B5002B08DA0024401C614192185B4169
:100D50001A4301D14008400010BDF0B51FB482B065
:100D600005460C0003D0084616F0B8F802E016F06D
:100D7000B5F820300246009021462846FFF754FE81
:100D8000049B059A04460F4618431143084314D0A8
:100D9000184610431BD0009840210A1A184605999E
:100DA000FFF752FE05460E46009A05990498FFF794
:100DB0003BFE084305D0012004E02046394607B039
:100DC000F0BD0020C11705430E432C433743009963
:100DD0000E986305401A7905E40A00220C43FD0AC7
:100DE0000A3002D500200146E9E7010510196941E2
:100DF0000C9C0D9D00196941FFF7A2FFDFE770B55C
:100E00004B005B0803430BD04B005C0D00263346C0
:100E10006542B341D417AD1AA34102DB002001465D
:100E200070BD12053018514170BDFEB500231A4641
:100E30001B1A8A4103DB0020014603B0F0BD4A00C3
:100E40000D0301212D0B0905520D0D43D10702D1D0
:100E500000186D41521E5110FF31FF310131002742
:100E600004463E4638460097019102460121002083
:100E70000905FFF7E9FDC3197141F81832468446A8
:100E80008E464A4161462846611A904104D3604625
:100E9000241A954176461F46241900986D41401C3E
:100EA00000903428E1DDF91930467041091BA84152
:100EB00003D20022D243134601E0002213460198D8
:100EC0000105381C7141FFF73BFFB6E70EB5C217AD
:100ED000C10F5040CA0740180021054B02930192F0
:100EE00000910A460B46FFF738FF03B000BD000033
:100EF0003304000070B5CD0F4A0009030123090B2C
:100F00001B0519430B4BED070024520D9A4201DAE1
:100F1000002070BD074B34339A4203DC9A1AFFF766
:100F200093FD02E00449511888402C43F1D040421F
:100F300070BD0000FF030000CDFBFFFF4A00090366
:100F40000123090B1B0519430A4B10B5520D9A4298
:100F500002DA0020014610BD064B34339A4203DC0E
:100F60009A1AFFF771FD10BD034BD218FFF75CFD15
:100F700010BD0000FF030000CDFBFFFF10B50029EE
:100F800004DB0124E40740428C412146002B04DBB2
:100F90001C460123DB075242A3418B4200D182420F
:100FA00010BD000010B5002904DB0124E407404215
:100FB0008C412146002B04DB1C460123DB075242F7
:100FC000A341994200D1904210BD000000000000F2
:100FD0001CB5094800900948019005460126009C6F
:100FE00005E0E36807CC33430C3C98471034AC422F
:100FF000F7D3FFF769F80000DCA90100FCA90100A4
:101000003A2800D23038202302469A43412A01D39D
:1010100010463738884201D30020C0437047000093
:10102000FFB5087889B01546FF2805D0491C2D2842
:1010300004D00022002407E000240BE00122F9E79D
:101040000A235C430419491C0878FF28F8D1002AB8
:1010500000D06442002004902A7801462D2A01D055
:101060002B2A0FD16D1C2D2A02D00022049209E0F8
:101070000122FBE700260A2233466D1CFFF78AF89F
:10108000381871412F78FF2FF4D10C9AA2180692CC
:1010900002460A4304D0FF23069A9133DA4205DA66
:1010A000002109980A4606C00DB0F0BD0024B74AD9
:1010B000B54D26460792FFF705FC0290069803916E
:1010C000002801DA474200E0074639050020AF4A10
:1010D000001C51410191009012E0F80707D0224610
:1010E0002B4630460799FFF77BFA064607912246C2
:1010F0002B4610461946FFF773FA04460D467F103B
:10110000002FEAD10698019B0028009A03990298C3
:1011100006DAFFF7CDFA3246079BFFF7C9FA05E07A
:10112000FFF75EFA3246079BFFF75AFA049A002A45
:1011300002D00122D2075140099A03C2B4E7FFB599
:1011400091B0002009900025ED432E209E685C6838
:101150001F460190B9696D1C129888470090396A42
:1011600088470028F6D10098401C0AD00D20C00105
:101170008443002E12DD00982B2809D02D280DD194
:1011800003E00020C04315B0F0BD012080020443FD
:10119000B9696D1C12988847761E009003A96005F6
:1011A00001D52D2000E02B206A461073491C0CA8A5
:1011B0000F9102900AE0B9696D1C1298884700905F
:1011C0000120400204431398761E0560002E02DDC4
:1011D00000983028EFD001990098884245D18020AE
:1011E000044308E00998401E09900120400204438E
:1011F0001399681C0860B9696D1C761E129888479F
:1012000000903028EED030E00199884205D12006C8
:1012100003D480200443761E1DE0009816F008F8E1
:10122000002825D0012149020C43009807AA0F99F4
:1012300003323038761E914208D208700F98401C55
:101240000F90200607D50998401E03E0200602D41F
:101250000998401C0990A00502D51399681C0860E4
:10126000B9696D1C129888470090002ECCDC59E0BB
:10127000002E57DD0098652801D0452852D1A005E1
:1012800050D5032000028443B9696D1C761E129864
:1012900088470090002E0CDD2B2804D02D2808D183
:1012A000FF2001300443B9696D1C12988847761EEF
:1012B0000090E00501D52D2100E02B21029801705E
:1012C0000298401C0290019025E001204002044356
:1012D0000EA902980131761E88420ED2009802991A
:1012E00030380006000E087003D10299019881423F
:1012F0000AD90298401C029006E0E00501D5244876
:1013000001E0234840420990B9696D1C1298884752
:10131000009013980560002E04DD009815F088FFFA
:101320000028D2D1F969129888470F99FF200870D8
:10133000029903AA087000200A900B900CA90AA831
:10134000099BFFF76DFEA00502D40120C0431AE7F8
:101350002420044209D0E00713D138680B9A0A9977
:10136000031D3B60006806C00BE00B990A98FFF76D
:10137000F8FA0146E00704D13868021D3A600068B7
:1013800001602846FFE60000000014400000F03F26
:10139000F1D8FFFF4268002A08D001680B78491C89
:1013A000002B03D0521E06C0184670470121C160B1
:1013B000881E70474268002A0BD0C3680168002B62
:1013C00007D183688B4204D0491E521C06C00020FE
:1013D00070470020C043704780B582B0094800685C
:1013E000C0B209280CD101A90020088010F008F82B
:1013F000002802D10448019941800348012141702D
:1014000002B080BD20300040E8012020B0B50A784D
:10141000032313400B4A84580B4D2540EB18A92495
:1014200024061B198350072212064B68134011240F
:10143000240205599543EA180251001949780161BF
:10144000B0BDC04608080000FCFFFF00811E091F58
:1014500000BFFCD27047000070B50B01C318546880
:101460009568254394892C43156956692543D48989
:1014700024012C4335012543092464021D511378AE
:1014800052781A43BF231A40890040182049445813
:101490009C43A218425070BDB0B51122120283586D
:1014A0000C4C1C400B894D881D438B792B430A4DF6
:1014B0001D402B1983508B88CC791C43097821431C
:1014C0005D239B001940801842689A438918416047
:1014D000B0BDC04680CCFFFF7F3300000C494018F0
:1014E00001684907FCD4006AC0B2704710B50122F8
:1014F000120383180C785C604978815010BD00009D
:10150000034A801802689207FCD501637047C04601
:1015100010110000B0B53F231B04044C25689D4307
:1015200008431043184028182060B0BD38010B4014
:10153000F0B584B0012422022A4B1968039291432A
:10154000196049490D686D04FCD5457E25409E69AA
:10155000A64374199C612024045D03252C40DE6998
:10156000AE433419DC61204C256805262660466AA6
:1015700037681F6276685E6207262E402660C4695F
:101580007F252D02DE69AE436406640C3419DC61EC
:101590000768456882680092C668026901924269DC
:1015A00002929A69114C14403A07120B2D03ADB206
:1015B000AA183243009D2D072D0D1543019A15439E
:1015C000029A1543007E2843094A02401019986187
:1015D0001868039A1043186008688005FCD504B0A9
:1015E000F0BDC04608010B40001340408D00F0FFE5
:1015F00072FF0F00F0B5124B1D46083D2E68012406
:10160000A6432E600326360330401F68B7433818C0
:1016100018601868FF26B043C9B2401818602868DF
:101620002043286018682107002A06D00843186064
:101630000D480168C905FCD5F0BD88431860F0BDB0
:1016400010010B4007498860074802689202FCD5E8
:10165000012212040B6813430B600168C906FCD514
:101660007047C04604010B4004020B40890040183B
:10167000C64940587047C046F0B585B02F4A851816
:1016800011221202821803924A7A521ED3B2012604
:101690000024022B019400960DD852B2920028A487
:1016A000A7584924E60134465C43A4190294274C08
:1016B000A2585B1C03E002222346029437464C6882
:1016C00004956C60CE688F252E4016433122D201DE
:1016D00084189B00E258AA433243E250CD688E261C
:1016E0003540BA00A758B743ED19009E3543A550C1
:1016F0009C4C0019C458944D2C40154EA419641CE0
:10170000C45083582B409B1983500398019A026060
:101710000878012801D0029A02E02020029A0243B0
:10172000087ABD2101401143049B18684A4A0240CF
:101730000A4302201043186005B0F0BD04180000F1
:1017400000000000030000000200000028810100EA
:1017500001000200F0B57A4A82183B4BC3180879A1
:101760004E793A4D784C002E23D0202804D00526FF
:10177000F601002803D003E0354E002800D188266A
:10178000576F2F4037435767976F2F4037439767FF
:10179000566B26405663966B264096630026566528
:1017A00096658F26F6435F6837405F609F683740D5
:1017B0009F608E79096820280BD0002819D1491E16
:1017C0005160D76E2F4088210F43D7661746703778
:1017D00019E0491E5160D16E29401D4F3943D16631
:1017E000116F29403943116701214907194D1746E7
:1017F00009E049085160D76E2F400521C9010F4308
:10180000D766174670373C682C400C433C60D16A61
:101810004D4C2140D162116B214011630021D164F4
:1018200011658F21C943D46F0C40D4671C680C40EC
:101830001C600643BD2030401168074B0B40C018A8
:10184000801C1060F0BDC0468418000024493E0092
:1018500001040000FFFFFFCF4000FFCFB0B54A6892
:10186000364BC250364A80180A78222A58D893003C
:1018700001A4E3589F46C046171900002119000033
:10188000171900002119000021190000211900007A
:101890002119000021190000211900002119000060
:1018A0002119000021190000211900002119000050
:1018B000211900002119000005190000211900005C
:1018C000051900002119000021190000211900004C
:1018D0002119000021190000211900002119000020
:1018E0002119000021190000211900002119000010
:1018F000211900002119000005190000211900001C
:101900000519000003231B0704689C4301235B07A0
:10191000E318036004E003231B0704689C4304608E
:101920000B69C360CB68074C1C40C36A064D1D4061
:101930002B19C362097A11430160B0BD0818000079
:1019400004180000777702008888FDFF10B5072390
:101950009B04194092008018024A84589C436118E5
:10196000815010BD3018000010B5029CA400001971
:1019700011431943014A815010BDC0465018000060
:1019800092008018014A81507047C046101800002C
:1019900010B50122120383180C789C604B78835099
:1019A0008978014A815010BD0C110000B0B5112298
:1019B000120283580124A34383500B888C781C4364
:1019C0008B882343094C1C408358094D1D406319E3
:1019D00083508B79CC791C43097A21437E231940AB
:1019E000801842689A4351184160B0BD18670000E2
:1019F000E798FDFF0E4A83585B0704D48018C0693E
:101A000008700120704700207047C04610B50122C1
:101A1000120383180C789C604978815010BD000037
:101A2000034A801802681206FCD481617047C046E0
:101A30000811000002480221016001210160704785
:101A400048B042400000000000000000000000001C
:101A5000EFF309800E4B1A6820381060F0C044463E
:101A60004D4656465F46F0C008B572B614F056FAB9
:101A700062B60CBC116808681030F0C8A046A946D0
:101A8000B246BB4680F309882038F0C81847C046E4
:101A9000D40020207047000010B513481349FFF709
:101AA000B5FC13484168134A0A4001214B04D2187F
:101AB00042608268104B13408360104A0023136019
:101AC0005160022494600824D46013610C4A42617E
:101AD0000A020C4B1C6A14431C621C6814431C60F1
:101AE00002680A43026010BD002000403C810100F2
:101AF00000310040FEFFECFFF8FFE0E080310040E5
:101B0000409C00002830004080B506480121016259
:101B100002680A43026004480021044AFFF79CFC63
:101B200080BDC04628B0424000A042404481010030
:101B300080B5FFF7E9FF80BDF0B52249002048627B
:101B4000886285248C64012213021F480360CC64E0
:101B5000530203601D4D8623AB621D4F813F1D4B19
:101B60001F608C6304271F601B4FAF668F607E1E53
:101B70006E63FE1E6E6082260E657E1F4E65832696
:101B80002E60CE673E1F8E678C61144CEC668126FA
:101B90004E662C63124CAC60EC60AC650C620C4C75
:101BA0000C604C6001463039D2060A60014640396B
:101BB00003240C60D11C01601846303809490160CB
:101BC0001960F0BD04804240D0120A408480424037
:101BD00081000200D0320A40870004008100010029
:101BE00081000E000002080010B5094C094920468A
:101BF000FFF7CEFE08492046FFF73EFD0748016883
:101C0000344A0A43026006480121016010BDC04603
:101C1000004008406C8101005C81010028500840B0
:101C20000851084010B5094C09492046FFF7B0FE9D
:101C300008492046FFF720FD07480168254A0A4366
:101C4000026006480121016010BDC0460080864048
:101C500080810100708101002890864008918640B3
:101C600010B5094C09492046FFF792FE0849204665
:101C7000FFF702FD07480168164A0A43026006485A
:101C80000121016010BDC04600A086409481010082
:101C90008481010028B0864008B1864010B5094C07
:101CA00009492046FFF774FE08492046FFF7E4FC87
:101CB00007480168074A0A4302600748012101609A
:101CC00010BDC04600208640A88101009881010017
:101CD000283086400203000008318640F0B583B00A
:101CE000324C33492046FFF753FE32492046FFF776
:101CF00031FD31480168314A0A40026000250095F3
:101D0000204629462A462B46FFF72EFE2046294626
:101D10002A46FFF71BFE7D208700204639462A46CB
:101D2000FFF72EFE012602960096204629462A46F7
:101D30002B46FFF719FE204629463246FFF706FEDE
:101D40002046394601973246FFF71AFE02260096D2
:101D5000204629462A462B46FFF706FE20462946FE
:101D60003246FFF7F3FD204639463246FFF708FEBC
:101D700003270097204629462A462B46FFF7F4FD05
:101D8000204629463A46FFF7E1FD204601993A46AA
:101D9000FFF7F6FD0A48029981600A490A68324352
:101DA0000A600F21016003B0F0BDC046000086400C
:101DB000AB810100B0810100041886407F00FFFF65
:101DC000001186402810864010B50D4C0D49204664
:101DD000FFF78CFB0C492046FFF75EFB0B48416880
:101DE0000B4A0A40111D4160816812220A432D21CD
:101DF0008A438260016801220A43026010BDC04626
:101E000000A04640B8810100BA81010004B14640FB
:101E100000FCFFFF094860490A68024082420BD07B
:101E20000A680240824207D00A680240824203D018
:101E30000A6802408242EFD17047C046000A200083
:101E4000F0B585B01F200006204A1168814311605B
:101E500001242105A20400200391FFF75BFB1C482D
:101E60001C4901600494660642241B4D4A4F3868A1
:101E7000304204D12846FFF7E9FA641EF7D113482F
:101E80008069029004980204002001900399FFF7F2
:101E900041FB0F480F49016042243868304204D1A9
:101EA0002846FFF7D3FA641EF7D117350298454349
:101EB000064881692846FEF770FD084940180F283A
:101EC00001D301980490049805B0F0BD38010B408F
:101ED0002C030B400100000ED103000043F6FFFF6E
:101EE000F0B581B02849002008600F210902274E73
:101EF000331F1A688A4301256F02D11900931960B4
:101F00000321C9433246083A13680B401360316815
:101F1000A943316031681E4A114031600A210246EE
:101F2000FFF768FB1B48FFF703FBFFF789FF00285B
:101F30000FD0009A106810210143202081431160C6
:101F400028031168014311600020FFF77BFB01B0FB
:101F5000F0BD114C03E0FFF773FF0028E9D13068B2
:101F60000B49084030602802316801433160206825
:101F70003842F0D120683842EDD120683842EAD1A9
:101F800020683842F3D0E6E708030B4008010B4015
:101F9000FFFEFFFFC481010004020B4010B50D4C91
:101FA0000D492046FFF7F4FC0C492046FFF756FC8C
:101FB0000B48016802220A430260FF20000409491D
:101FC0000A68824303208005101808600648012132
:101FD000016010BD00000940EC810100F0810100AA
:101FE0002810094000E400E00811094070B5244CB5
:101FF00024492046FFF70AFD23492046FFF7D6FC77
:102000000322D103214803688B4303600169204BFD
:102010000B401533036141692D230B4312218B4380
:102020004361436801210B4044688C43E3184360DB
:10203000184B1C68184D25431D60FF242406174DBE
:102040002E68A6439207B2182A60CA021A664A048A
:10205000036813430360C26870231343C360C268FC
:102060000223134305229343C3600F231B02C4685A
:102070009C435202A218C26002680A43026070BD0B
:10208000008010400482010006820100009110408F
:102090000000FFFF28901040011401000CE400E054
:1020A00080B500F033F8FFF747FDFFF719FFFFF7A2
:1020B00015FEFFF7D5FDFFF7F1FDFFF7B3FDFFF7C5
:1020C00093FDFFF76BFFFFF791FFFFF77DFEFFF733
:1020D000E3FCFFF72DFDFFF79DFE9C200649002243
:1020E0000A54B821054B5A54054B5A5405490A5411
:1020F000242005490A5480BD64032020C004202008
:1021000004042020C40220207C052020F0B581B0EA
:102110001648174A426017484260174842601748FD
:10212000426017484260174E7260174F7A60174C32
:102130006260174B5A6017494A6017484260174A55
:102140000A4D2A600B4D2A600B4D2A600B4D2A6008
:102150000B4D2A6032603A6022601A600A600260A9
:102160001020FFF773F901B0F0BDC04600080A4027
:10217000030000B100280A400008864000A88640FD
:102180000028864000888640004808400008094032
:102190000088104000A846400028004001000026AA
:1021A00010B513F03CFC044614F0CCFC002803D01E
:1021B0000120000702490860204613F05EFC10BDB4
:1021C00004ED00E080B5012008F0CEFD80BD80B5B3
:1021D000032008F0C9FD80BD80B5022008F0C4FDD1
:1021E00080BD80B5002008F0BFFD80BD03480221FE
:1021F000016003480168491C0160704748100940AC
:10220000E425202080B509F095FF80BD80B52348E6
:1022100080680249FEF7B6F880BDC046E02E6542F0
:102220001E4840687047C04670B5002825D08168B8
:102230001A4E31624168F1610568B5610024284693
:102240002146FEF7BBFA002807D17F20C4052846A7
:102250002146FEF7A5FA002800D1B461F0690021FB
:10226000FEF7C8FA002801D10D48F061306A00215C
:10227000FEF7C0FA002805D007E008480849094AD7
:102280008261C161FD4808490162FC48002141604A
:102290008160C16001610121017070BD6C0020206E
:1022A00090C2F53C48E17A3F9A99193EF0B589B061
:1022B00008920446F1480078012800D083E11D46C9
:1022C0000E4600211846FEF76BFA002800D07AE18E
:1022D0007F20C70528463946FEF78CFA002800D033
:1022E00071E1E7493046FEF74DF807952946FEF7BC
:1022F00049F8E2494968FDF7ECFF0646DF48856981
:1023000038462946FEF736F801463046FEF73AF8D9
:10231000064628462146D94CFEF734F83146FDF7EB
:10232000D8FF06906060D7490898FEF72BF806465C
:10233000D549FEF735FA002829D1D44DD24F304681
:102340002946FDF7C6FF06463946FEF729FA00285A
:102350001DD130462946FDF7BCFF06463946FEF73B
:102360001FFA002813D130462946FDF7B2FF064672
:102370003946FEF715FA002809D130462946FDF7FF
:10238000A8FF06463946FEF735FA0028D7D1A660E1
:10239000BF493046FEF720FA00282AD1BD4DBC4F78
:1023A00030462946FDF795FF06463946FEF714FAF2
:1023B00000281DD130462946FDF78BFF06463946D9
:1023C000FEF70AFA002813D130462946FDF781FFAF
:1023D00006463946FEF700FA002809D1304629465C
:1023E000FDF777FF06463946FEF7E8F90028D7D112
:1023F000A66000213046FEF7EFF90028354629D1C6
:10240000A44F354628463946FDF763FF05460021AF
:10241000FEF7E2F900281DD128463946FDF759FF9D
:1024200005460021FEF7D8F9002813D12846394681
:10243000FDF74FFF05460021FEF7CEF9002809D130
:1024400028463946FDF745FF05460021FEF7B6F957
:102450000028D7D18F492846FEF7B0F9002800D1CF
:10246000B3E0864C6069401C60616069401C60613B
:10247000894F384630388949089001608549284697
:10248000FDF7BDFF9F21C9050591FDF77BFFFEF715
:1024900040FA012108433A46143A0392106004912D
:1024A0000D023868284208D03868284205D03868BC
:1024B000284202D038682842F3D1384610380290BA
:1024C0000068FEF7DFF9032109070191FDF75AFFC4
:1024D00001460698FDF756FF0799FDF753FFE1689F
:1024E000FDF7F7FEE06038460C38009000680021E8
:1024F0003046FEF771F9002828D1664C3046214657
:10250000FDF7E7FE06460021FEF766F900281DD11B
:1025100030462146FDF7DDFE06460021FEF75CF958
:10252000002813D130462146FDF7D3FE0646002190
:10253000FEF752F9002809D130462146FDF7C9FEC1
:1025400006460021FEF73AF90028D7D15149304616
:10255000FEF734F9002866D0484C6069401C606181
:102560006069401C606108984C49016049493046E7
:10257000FDF745FF0599FDF705FFFEF7CAF9049938
:102580000843039908603868284208D03868284210
:1025900005D03868284202D038682842F3D1029822
:1025A000006800980068FEF76DF90199FDF7EAFEF2
:1025B00001460698FDF7E6FE0799FDF7E3FE21695F
:1025C000FDF787FE206109B0F0BD304F314C284641
:1025D0003946FDF77EFE05462146FEF7EFF8002856
:1025E00000D03EE728463946FDF773FE05462146F2
:1025F000FEF7E4F8002800D033E728463946FDF717
:1026000068FE05462146FEF7D9F8002800D028E7E5
:1026100028463946FDF75DFE05462146FEF7DCF803
:102620000028D4D11DE71B4C30461849FDF751FE58
:1026300006462146FEF7C2F800288DD130461349E0
:10264000FDF747FE06462146FEF7B8F8002883D17D
:1026500030460E49FDF73DFE06462146FEF7AEF830
:10266000002800D078E730460849FDF732FE0646DC
:102670002146FEF7B1F80028D6D16DE76C00202086
:102680000AE81C4135FA8E3CDB0F4940DB0FC9C01C
:10269000DB0F49C0DB0FC940301141400100001F72
:1026A000ACB004467D25EE0008F054F800280ED0AA
:1026B00008F02AF8F1A007F0EDFCF3A007F0EAFC1F
:1026C000FEA007F0E7FC304612F081FDFBE7149511
:1026D0002320C00020180A902720C000201807904F
:1026E0005920800020181190652080002518712045
:1026F000800027187B20800020181590204670301D
:1027000009902046903006902046C430089020461C
:10271000E4300590142012F05AFD3320C000201838
:1027200004900320C001201803902D20C000201821
:102730000290152000012018019021200B9000012B
:10274000201810906D208000201813902046FC3037
:102750000E902046A8300D900F9454340C94002015
:102760001A9517A9C1C10AE012F0E8FC0020199FD0
:10277000F861F86012F0FAFC052012F028FD27A895
:102780002BAC214608F044F92A98239029982490EC
:102790002798259028982690E578A67820781B9091
:1027A000647812F0F9FC0746C548002D02D0076096
:1027B000384600E000683D1A189812F0F1FC854296
:1027C00001D900202390BE48002E02D04760384631
:1027D00000E04068189E3D1A304612F0E1FC854248
:1027E00001D9002024901B98002803D0B4488760AA
:1027F000384601E0B24880683D1A304612F0D0FCFD
:10280000854201D900202590AD48002C02D0C76038
:10281000384600E0C0683C1A304612F0C1FC8442E1
:1028200001D90020269012F089FC26982599249A37
:10283000239B139C23606260A160E06012F096FC11
:10284000269C259F249D239E12F078FC15980168F4
:102850001B914068169012F089FC3046FEF712F882
:1028600006462846FEF70EF801463046FDF731FDD4
:1028700005463846FEF706F801462846FDF729FDCD
:1028800005462046FDF7FEFF01462846FDF721FDDF
:102890001499CF053946FDF775FD0146FDF719FD81
:1028A0008849FDF76FFD8849FDF76CFD8749FDF705
:1028B000A6FD16991B9A864BFFF7F8FC23A820ACBF
:1028C000214601F02BFA2478179803281B945AD339
:1028D0001CA808F073F81F9812901E9D1D9E1C9C4A
:1028E00012F02CFC15980068179012F03FFC12F0C3
:1028F00053FC169012F022FC2046FDF7C3FF04465D
:102900003046FDF7BFFF01462046FDF7E2FC0446D6
:102910002846FDF7B7FF01462046FDF7DAFC0446DE
:102920001298FDF7AFFF01462046FDF7D2FC39466D
:10293000FDF728FD0146169800901098179AE94B6C
:1029400004F086F8044612F011FC002C13D00B980A
:10295000205C00280FD0E1680F9803F033FDA168D8
:102960000C9803F02FFD21680D9803F02BFD616892
:102970000E9803F027FD002017901A9D199F1B9CAD
:10298000002C06D119E0401C17901A9D199F002CAD
:1029900013D02298002810D112F0D0FB2198386073
:1029A00012F0E4FB20A80078022833D001284CD193
:1029B0000020012107F0AAFF47E02398FDF762FFFE
:1029C000044612F0BBFB2D7F12F0D0FB012D18D175
:1029D000119801780F980177012920D10746C16B22
:1029E000019800F0E5FF05463846199F2146BC4A8C
:1029F00003F026FB014638612846FDF76AFC0446D1
:102A000014E012F09BFB00203861386012F0AEFB3E
:102A10001A9D19E02199002007F0F4FE15E02146E7
:102A2000AF4A03F00DFB0446002038611A9D12F0F6
:102A300085FB2046FDF754FF0446386012F096FBF4
:102A40000020214607F0DEFE1B9C002C42D022987D
:102A500001283FD112F072FB2198786012F086FBBA
:102A600020A80078012864D0022866D1219901208D
:102A700007F0C8FE002C62D197E0C0465B45525279
:102A80004F525D2000000000445256383837302045
:102A9000706F77657220656E61626C652066616932
:102AA0006C65643B20636F6E74726F6C207461732D
:102AB0006B20696E68696269746564000A000000D1
:102AC0005C002020DB0F494090C2F53C00007042C2
:102AD0000AD7A33B2498FDF7D5FE044612F02EFB3F
:102AE0006D7F12F043FB002D17D01198007E0999DD
:102AF0000870002840D006980168029800F058FF3E
:102B000005460C982146764A03F09AFA0146786108
:102B10002846FDF7DEFB044636E012F00FFB0020EE
:102B20007861786012F022FB1A9D1B9C002C06D164
:102B30003BE00120014607F0E9FE002C35D0229849
:102B4000022832D112F0FAFA2198B86012F00EFB86
:102B500020A80078012808D0022853D1219902200A
:102B600007F050FE002C4FD180E00220012107F039
:102B7000CDFE002C48D179E00C982146584A03F04C
:102B80005FFA0446002078611A9D12F0D7FA2046B9
:102B9000FDF7A6FE0446786012F0E8FA012021460F
:102BA00007F030FE1B9C002CC9D12598FDF76AFE6A
:102BB000044612F0C3FAAF7F12F0D8FA002F18D0F3
:102BC0002878089908700028199F37D0059801685F
:102BD000039800F0EDFE05460D982146404A03F0AB
:102BE0002FFA0146B86128461A9DFDF772FB04468C
:102BF0002CE012F0A3FA0020199FB861B86012F01F
:102C0000B5FA1B9C002C31D0229803282ED112F04B
:102C100095FA2198F86012F0A9FA20A80078012806
:102C200007D0022800D0A7E52199032007F0EAFD8C
:102C3000A2E50320012107F069FE9DE50D982146DC
:102C4000274A03F0FDF904460020B86112F076FA35
:102C50002046FDF745FE0446B86012F087FA0220D0
:102C6000214607F0CFFD1B9C002CCDD12698FDF707
:102C700009FE044612F062FAEF7F12F077FA002F95
:102C800000D171E5287E0A9908700028199F11D09B
:102C900007980168049800F08BFE05460E982146BF
:102CA0000F4A03F0CDF90146F8612846FDF711FB04
:102CB000044607E00E982146094A03F0C1F904468C
:102CC0000020F86112F03AFA2046FDF709FE0446AA
:102CD000F86012F04BFA0320214607F093FD4BE514
:102CE0000AD7A33B0AD7A33CF0B58BB007F0F6F99F
:102CF0000026304607F012FA45A015F037F94DA02E
:102D000015F034F957A015F031F95BA015F02EF944
:102D100061480490039634463746059609E007A8B3
:102D20000025C55505225D49FDF781FA00282F468B
:102D300051D006A809F0CCF900280BD106A80078DC
:102D40000D28ECD00A28EAD00E2FF2D807A9C855D2
:102D50007F1CEEE707F0A4F9524D07F0D3F90028E5
:102D600003D1691C002D0D46F7D100282BD0029607
:102D70000025284607F09EF90646059880B286424F
:102D8000314600D8014628460D4607F09BF9034618
:102D900005950195049880B28642314600D30146DC
:102DA0000491009141482146324614F053F8C8205E
:102DB00007F0C4F9039880190390029E761C641CE6
:102DC000642CB6D10AE03848214614F043F8641C5C
:102DD000642CAED102E0324815F0C8F8002E11D0B4
:102DE00003983146FDF7D9FD0246059880B2049953
:102DF00089B2009101902E485043030B2D48314673
:102E000014F028F82C4815F0B1F80BB0F0BDC0460E
:102E10000D0A3D3D3D3D3D2041444320496E7465D2
:102E200072727570742054657374203D3D3D3D3D54
:102E30000D000000565245463D333330306D56206C
:102E4000205245533D313262697428343039362975
:102E5000202050696E3D50413237202043483D309C
:102E60000D000000547970652053544F5020746F4A
:102E700020657869742E0D002020232020207261A7
:102E800077202020206D5620207C206D696E202028
:102E9000206D61780D000000FFFF0000B397010076
:102EA0006895010001CBF3FF1893010054940100D1
:102EB000E40C0000E4930100B795010080B50C48D4
:102EC00015F054F880BDC04680B5094815F04EF89D
:102ED00080BDC04680B5024815F048F880BDC046A8
:102EE0001795010080B5024815F040F880BDC04636
:102EF0007895010080B502A015F038F880BDC04675
:102F0000445256383837302073636F7065206F66CF
:102F1000662069732064697361626C656420696E00
:102F200020746869732070726F64756374696F6E62
:102F3000206275696C642E0D00000000F0B5ABB026
:102F4000002800D18CE10F46032900D988E1BD009B
:102F50001C95064607F0A4FE0446C2A04159C54888
:102F600013F078FFC4A005221294214613F072FFDB
:102F700054247C4312F0E2F83419E56B12F0F6F8B1
:102F80002846FDF7DAFC0246C3A00B4613F062FFA9
:102F900012F0D4F8204603F00AFAF0191B210901B7
:102FA00001220D92425412F0E1F8C0A014F0DEFFAD
:102FB000CD4814F0DBFF002426940E961C983018A0
:102FC00075218900411811917121890041181091D2
:102FD0006D21890040180F90C54E13971A941DA8B3
:102FE00009F076F8002873D0F8B21DA907F016FE94
:102FF000002800D028E112F0A1F811980568109877
:10300000006819900F98076812F0B0F80320C043C9
:103010001D9A911E81421C921B9732D8129E002E3F
:1030200077D01895D11700241046B04A2346FDF7F3
:10303000B1F805460F461DA840892099081A00B22C
:103040000121002801DC0A048018012800D8084664
:10305000214632462346FDF79DF802460B46284698
:103060003946FDF771F803460028AD4800D0A54861
:103070001C9A189D1B9F002B79DC0021002F79D012
:1030800087E0012A129E01D0501C45D11DA8848AD8
:10309000002C48D0002E76D01895D1170025104668
:1030A000924A2B46FDF776F817901691204629464E
:1030B00032462B46FDF76EF802460B4617981699D6
:1030C000FDF742F8034600288D484CD08D484AE071
:1030D00026AC11E0216827A8002545540522314679
:1030E000FDF7A5F82560002800D1ABE01DA808F089
:1030F000EFFF002800D077E71DA800780D28E9D061
:103100000A28E7D021680E29F0D827AA5054241D98
:10311000ECE7002182483BE0219800287C4800D061
:103120007CA0002134E0002E30D01895D117002467
:1031300010466E4A2346FDF72DF80546179125984F
:10314000012800D80D98214632462346FDF722F883
:1031500002460B4628461799FCF7F6FF034600285F
:10316000694800D069481C9A189D002B85DD012113
:10317000002F0ED1012B0CDB1893219816901E986E
:103180001790684825E000215D4801E000215E4875
:103190000B46219E1E9C002A09D1002C07D1002E2F
:1031A00005D118930020169017905F4811E0002A6F
:1031B0001794169606D1002C04D0002E02D0189336
:1031C0005A4806E0002A30D0002B2ED1002018905B
:1031D000574815901A9C08201DAF38561490284661
:1031E000FDF7ABFB7B7A7A89BD89BF8A239E0A9063
:1031F0000B9115980C9019980890149800A9A5C1E6
:103200001698049005961B980690189807904A48BF
:103210001C99179A13F01EFE642011F0D8FF641C4D
:10322000322C139F324E13D0D8E6002F03D1024622
:10323000002903D003E03FA2002900D102461592E5
:103240001893C7E72B4C04E001462B4813F002FE0D
:103250002A4C0E98394602F0B7FE204614F086FE3E
:103260002BB0F0BD9B970100A1970100AB97010027
:10327000618A0100EB9201005050523D256C75208F
:1032800020436F6E74726F6C20706572696F643D5D
:103290002575206D730D0A005461726765743D25B4
:1032A0002E30662052504D0D0A0000004D6F746F95
:1032B0007220656E61626C65642E2053616D706C66
:1032C000696E6720666F72207E3573202853544FD5
:1032D0005020746F2065786974206561726C79295B
:1032E0002E2E2E0D0000000036960100808D5B0012
:1032F000B3970100F5940100C8920100C795010041
:1033000002970100C79201001E9701003397010048
:10331000E79601004D3D302864656361792900001E
:103320000F970100B8970100CC9601004B97010060
:10333000A39701004F4B00009F930100F0B599B097
:1033400004462FA014F012FE36A014F00FFE002C3D
:103350003ED0002611A807F037FC119B12AA07CA1D
:1033600000AD07C505A83021324A13F083FD07469A
:1033700008F0CCFF002803D0B9B205A808F068FF18
:1033800000270FE015A80025855505222A49FCF7DE
:103390004EFF00282E4616D00A2006F0CFFE0A3730
:1033A000A742D7D204A808F093FE0028F4D104A8BD
:1033B00000780D28E6D00A28E4D00E2EECD815A906
:1033C0008855761CE8E71DA014F0D0FD19B0F0BDBB
:1033D000184C11A807F0F8FB119B12AA07CA00AD00
:1033E00007C505A83021224613F044FD054608F024
:1033F0008DFF0028EDD0A9B205A808F029FFE8E765
:103400000D0A3D3D3D3D3D20456E636F6465722074
:1034100053747265616D2028444D4129203D3D3D26
:103420003D3D0D0053544F5020746F2065786974F2
:103430002E0D0000E4940100B39701000D0A3D3DFC
:103440003D3D3D2053747265616D2053746F707003
:103450006564203D3D3D3D3D0D00000085498842AD
:1034600000DD4FE07F2800DD60E0411E3F2900D9EC
:10347000D4E000204900C0467944898849008F443F
:10348000CC003F00DD00D300DD00DD00DD00D50015
:10349000DD00DD00DD00DD00DD00DD00DD00D90048
:1034A000DD00DD00DD00DD00DD00DD00DD00DD0034
:1034B000DD00DD00DD00DD00DD00DD00DD00D7002A
:1034C000DD00DD00DD00DD00DD00DD00DD00DD0014
:1034D000DD00DD00DD00DD00DD00DD00DD00DD0004
:1034E000DD00DD00DD00DD00DD00DD00DD00DD00F4
:1034F000DD00DD00DD00DD00DD00DD00DD00DB00E6
:10350000012070475C4988421FDC5F4988422BDC00
:103510005F4988424CDC0121CA03904200D190E00F
:103520000904884200D089E0102070475949884238
:1035300026DC5A49884244DC802800D183E00121FE
:10354000090288427AD1082070474C49884223DC1E
:103550004C4988423EDC0121CA05904275D00906DB
:1035600088426BD118207047484988423BDC0121D2
:10357000CA0490426BD0090588425FD1142070477D
:103580004549884238DC0121CA02904261D00903D2
:10359000884253D10C2070473949884235DC0121DB
:1035A000CA06904257D00907884247D11C2070476D
:1035B00001214A04904250D0890488423ED1122011
:1035C000704701214A02904249D08902884235D190
:1035D0000A20704701214A06904242D0890688425B
:1035E0002CD11A20704701214A0590423BD0890511
:1035F000884223D11620704701214A03904234D0DB
:10360000890388421AD10E20704701214A0790424F
:103610002DD08907884211D11E2070470121C9078A
:1036200088420BD11F20704702207047032070474B
:103630000520704704207047062070470020C043D3
:1036400070470F20704707207047172070471320DE
:1036500070470B2070471B207047112070470920CE
:10366000704719207047152070470D2070471D20A6
:103670007047C046FF7F0000FFFF7F00FFFFFF078E
:10368000FFFFFF1FFFFFFF01FFFF0700FFFF1F00FE
:10369000FFFF0100FF070000FF1F0000FF01000007
:1036A000F0B59FB01BA807F08FFA054613A808F0E5
:1036B000EDFC04468DA014F059FC97A014F056FCC4
:1036C000A5A01B2113F0C6FB002D0FD0A64829464C
:1036D00013F0C0FB002C00D1FAE0B248214613F0F1
:1036E000B9FBB24814F042FC1FB0F0BD09949F48EA
:1036F00014F03CFC00260AA9304607F08FFA044675
:103700000125A806FFF7AAFE07466806FFF7A6FEF2
:10371000002C04D096489749974A234628E0F14365
:10372000964B1C781B9A012C12D15B680AAC647A08
:1037300007940E9C0894109CD31A00900191029259
:103740000393079804900898059006948E480CE01F
:103750000AAB5B7A08930E9C109B06930594089B1A
:103760000493874B00AC0FC486488249824A3B468B
:1037700013F070FB0AA9284607F050FA0446280700
:10378000FFF76CFE07461020FFF768FE002C04D000
:1037900077487E497E4A234624E0F143774B1C78E4
:1037A0001C9A002C10D09B680AAC647A07940E9E79
:1037B000109C0894D31A00AC0FC407980490059687
:1037C0000898069070480AE00AAB5B7A0E9C109E3F
:1037D0000696059404936A4B00AC0FC469486B4984
:1037E0006B4A3B4613F036FB02200AA907F016FA93
:1037F00004466805FFF732FE0646A803FFF72EFED3
:10380000002C04D05A486349634A23461FE05B4AB0
:1038100013781D99002B0BD0D2680AAB5B7A0E9CF3
:10382000109F8A1A0090019502A89EC056480BE08E
:103830000AAA527A0E9B109C04AF1CC7504A0392EE
:103840000291019500904F485249534A334613F074
:1038500001FB03200AA907F0E1F904462803FFF75A
:10386000FDFD06466803FFF7F9FD002C04D0404833
:103870004A494B4A23461FE0404A13781E99002BC1
:103880000BD012690AAB5B7A0E9C109F8A1A0090CB
:10389000019502A89EC03C480BE00AAA527A0E9BF2
:1038A000109C04AF1CC7364A039202910195009008
:1038B00034483A493A4A334613F0CCFA2F481BAC05
:1038C0001ECC061D1EC60570099C002C00D004E706
:1038D00013A8C08B13AC1ECC00940190324813F097
:1038E000B9FA324814F042FB1FB0F0BD0D0A3D3D5D
:1038F0003D3D3D2054454D5020524541442D4F4EB5
:103900004C59204857204D41502044494147203DC3
:103910003D3D3D3D0D0000004E6F2050574D2C2089
:103920006E6F206D6F746F7220636F6D6D616E646A
:103930002C206E6F20656E636F64657220636C650A
:1039400061722C206E6F20706572696F64696320EC
:103950007461736B2E0D00004C45443A2050412594
:103960006C750D0A00000000799301008296010039
:103970002A930100AD97010090970100A800202034
:1039800099970100AC940100739401009D97010088
:103990007E970100B097010087970100A097010072
:1039A000759701004E93010012940100EC950100FF
:1039B000F0B583B00026002817D004460291007DA0
:1039C000012812D10120C007029F01908743A568FA
:1039D000002628463146FCF7E3FE002808D1384689
:1039E0002946FCF7EBFE002802D0304603B0F0BDBC
:1039F000256900212846FCF7D3FE00280ED1384661
:103A00002946FCF7E9FE002808D10299019A1140E5
:103A1000E06890434618304603B0F0BD2068029934
:103A2000FCF7B0FC6168FCF754FC0646304603B076
:103A3000F0BD0000F0B587B007460020002F66D02B
:103A4000002964D0002A62D03D6D022D5FD3009121
:103A500001920026029505960496069603963C6808
:103A600006982146FCF735FC0690BE6A059831465B
:103A7000FCF72FFC059020463146FCF783FC0399A8
:103A8000FCF727FC064620462146FCF77BFC049900
:103A9000FCF71FFC04903F1D6D1EDFD10298FCF760
:103AA000FCFE074606980146FCF76CFC04463846C7
:103AB0000499FCF767FC2146FCF75CFC05460120F5
:103AC0000490C107284688431349FCF785FE002867
:103AD0001FD006980599FCF755FC04463846314638
:103AE000FCF750FC2146FCF745FC2946FCF787FC17
:103AF000009908600699FCF745FC01460598FCF71B
:103B000039FC3946FCF77BFC01990860049807B042
:103B1000F0BD002007B0F0BDBD378635002806D0C7
:103B200000210175016041608160C16001617047E1
:103B3000002800D001757047F0B58FB017460246D7
:103B40000020032900D996E0002A00D193E0002F3D
:103B500000D190E00D4600243C654D4E34704DA0E0
:103B60000B9213F077F90B9B1B20000118180A9099
:103B70005420684318180990A80018186D2189006E
:103B8000421871218900411838462830069007975D
:103B90000D920C91307801286FD00894A70011F095
:103BA000CDFA43A0C159099802F00CFC0120059000
:103BB0000A99485511F0DAFA3C24354E307801283C
:103BC0005BD0322011F003FB641EF7D103970495FC
:103BD0000026C824354611F0B1FA0D9800680E9001
:103BE0000C98076811F0C2FA052011F0F0FA384677
:103BF000FCF748FE01462846FCF76BFB05460E988D
:103C0000FCF740FE01463046FCF763FB0646641EA7
:103C1000E1D12846304D2946FCF7F1FB01460E90D4
:103C20000698039C015130462946FCF7E8FB0546FF
:103C3000079F3851386D401C38650E98FCF77DFEA3
:103C400004460E462846FCF778FE0246009401968C
:103C500022A00B4613F0FEF8089C641C0A2C049D5D
:103C60000B9B0B4E96D11846294602F0ADF923A0C6
:103C700014F07CF905980FB0F0BD244814F076F9E3
:103C80000B98294602F0A0F900200FB0F0BDC04605
:103C90008C1B20205B53574545505D204D6F746F42
:103CA0007220256C752073746172740D0A00000017
:103CB000000048420000C84200001643000048438C
:103CC000000096430000C8430000FA430000164479
:103CD00000002F4400004844000048435B53574510
:103CE00045505D2052504D3D252E3066202D3E2002
:103CF000445554593D252E30660D0A005B535745F7
:103D000045505D20446F6E650D000000098501007F
:103D1000314800210170314801717047F0B581B020
:103D2000002848D0002946D000244C600C702A4A54
:103D300053688B601578002D3DD0042B03D30020F1
:103D4000107001B0F0BD022D15D0012D33D14C60A3
:103D500001250D7099004058001D082823D890684F
:103D6000401C9060142826D31C48046094600220F4
:103D7000107001B0F0BD194D2E683709182F15D8F5
:103D80009A008058B200AD18C922D200144B1C68AA
:103D9000AC500F46FCF776FD3946A860701C0F4A00
:103DA0001060022005E0946001B0F0BD14700120A5
:103DB00028714C60087001B0F0BDC0460648002173
:103DC0000170064A1160416081604B208000044B05
:103DD000186011717047C0463C002020A4052020C7
:103DE00028002020F0B587B00026002859D01C46B6
:103DF000002B56D005460C980690002851D00F464F
:103E00002868002605903146FCF7CAFC002848D1F6
:103E10006D68002628463146FCF7C2FC002840D1D8
:103E200000213846FCF7BCFC00283AD13F200106AF
:103E300004952846FCF7A6FA1B4E01903146FCF784
:103E4000BDFC029019493846FCF79CFA01467F20D8
:103E5000C0050390FCF7D3FA0546029800283746C0
:103E600000D1019F28463946FCF7C4FC002800D148
:103E70002F4628463146FCF7A1FC002800D13E46DB
:103E800005983146FCF77EFA054604982946FCF76A
:103E9000B6FA206003982946FCF7B1FA0699086043
:103EA0000126304607B0F0BD0AD7233CDB0FC940DE
:103EB000F0B597B00025002875D007461C9800285B
:103EC00071D014460E4605900025129318462946D7
:103ED000FCF766FC411E884101210A2E069100D3A1
:103EE0002946002C5FD001435DD11597E01744406F
:103EF000201AFCF7D2FC1690B008351AB54200D350
:103F0000750800201096AE42119033D91099481BC5
:103F100003270740E8430E18002F12D0A800159C75
:103F20002058691C012F0ED089006158FCF7D1F987
:103F3000A91C022F07D089006158FCF7CAF9E91CB7
:103F400001E000202946032E14D3109A561A890046
:103F5000159A57183968FCF7BCF97968FCF7B9F974
:103F6000B968FCF7B6F9F968FCF7B3F9361F1037F2
:103F7000002EEFD11099491B05460846FCF78DFC31
:103F800001462846FCF73BFA044601201390C0077F
:103F9000264686437F20C50530462946FCF70EFCA1
:103FA000002803D0119D284617B0F0BD0E9601954C
:103FB00020461699FCF723FA0290C0490494204643
:103FC000FCF7E0F91490159D10CD0F942868169019
:103FD000149F3946FCF7F2FB0646401E86412046F8
:103FE0003946FCF7F9FB0028069800D13046012835
:103FF00032D11698149F3946FCF7FCFB0646401E4A
:10400000864120463946FCF7CBFB0028069800D1B4
:104010003046002820D02D1D1398401C109E139070
:104020008642169CD2D1A6480F9C044014990140A8
:104030002046FCF7D1FB002800D03BE1A1490E98B7
:10404000FCF7A0F901462046FCF7B8FB00281298BF
:10405000119DA8D19C4918E014982146FCF78AF9D3
:10406000064616982146FCF785F901463046FCF7CE
:10407000C6F904461398401EFCF70FFC0146204683
:10408000FCF727F90146109E1298FCF77BF9039084
:104090000320314601401491711E032903D20027E9
:1040A0003C463D4636E0864316960027159E3C4624
:1040B0003D463068FCF741FC02460B462046294647
:1040C000FCF7DCF904460D467068FCF736FC024646
:1040D0000B4620462946FCF7D1F904460D46B06848
:1040E000FCF72BFC02460B4620462946FCF7C6F996
:1040F00004460D46F068FCF720FC02460B462046BD
:104100002946FCF7BBF904460D4610363F1D1698AC
:10411000B842CED11498002829D0BE00159FB859B6
:10412000FCF70BFC02460B4620462946FCF7A6F995
:10413000044614980D46012819D0BE190746706828
:10414000FCF7FBFB02460B4620462946FCF796F996
:1041500004460D46022F0AD0B068FCF7EEFB02467B
:104160000B4620462946FCF789F904460D4610986F
:10417000FCF79AFB02460B4620462946FCF798FAC4
:104180000F900E911298FCF7D8FB0D900120C007FC
:10419000009041400C910498FCF7CFFB0B900A91E2
:1041A0000398FCF7CAFB09900891002005460146D8
:1041B0000446074613941297119514911690169879
:1041C000FCF772FB02460B460D980C99FCF708FAB7
:1041D000099A089BFCF76CFA13F07CFC002207920A
:1041E0003A4BFCF74BF90B9A0A9BFCF7F9F9074697
:1041F0000C46159901C91591FCF79FFB06460D4623
:104200003A462346FCF73AF902460B46FCF7E8F932
:10421000139A129BFCF732F904460F463046109E63
:1042200029460F9A0E9BFCF7CDF902460B46FCF788
:10423000D7F9119A149BFCF721F905461698401CF2
:104240008642B7D112971394214A224B28461491E3
:10425000FCF702FB0028079F3C460ED013981299EA
:104260002A46149BFCF724FA13F090FEFCF779FB26
:1042700001460198FCF77EF80446059D2E610398DF
:104280006860049EAE6020463946FCF797FA002825
:10429000384600D12046E86030463946FCF79CFAA3
:1042A0000028029801D1009948402860069D2846C0
:1042B00017B0F0BD3F200106E6E6C046C1CA213F67
:1042C000FFFFFF7FCDCC4C3F9A99993E0000F0BF95
:1042D00011EA2D819997713D144A002313601371DF
:1042E000134A5060936001201070002906DA4F20B5
:1042F000C043104B99420A4605DD05E050200D4BA6
:1043000099420A4600DC1A467D239B009A4205DA50
:104310004F319F2906D20849086070471A464F312D
:104320009F29F8D31046044908607047A40520204F
:104330003C0020200CFEFFFF28002020B848007819
:10434000002802D0C4208A490858704780B5B44874
:104350000078012806D1C42085490858002801D0DA
:104360004168884780BDC046F0B599B000280DD09F
:10437000054611F003FB10F039FF7D4E304606F084
:104380003DFF002807D07BA013F0F0FD002010F0C7
:1043900027FF19B0F0BDC8200190305C0DF00CF87B
:1043A00001467EA012F056FDC4243059002803D0E7
:1043B0000CF06CFE0020305183A013F0D7FD0120DB
:1043C0000290C60206278C49384632460CF040FD62
:1043D0006749085100281BD0654E0198375487481B
:1043E00013F0C4FD305983680B21854A9847305932
:1043F00083680C21834A9847305983680D21824A8B
:104400009847305983680E21804A984780480CE0CD
:104410008048314612F01EFD00200CF0ADFA544EDB
:104420003051002800D1A0E07B4879218122890009
:1044300092006C18AD1813F099FD7948029901703B
:10444000784813F093FD784F019502E00A2010F0B0
:10445000BEFE0FA9304607F0F7F80028F6D110F09D
:104460006DFE16981599179A07C412981399E06073
:104470002161149828600F9839460C3CFBF7BFFF68
:10448000E06010983946FBF7BAFF20611198394671
:10449000FBF7B5FF60611898686010F067FE10F0D8
:1044A0007BFE10F0A1FEA86003F050F90028CDD0EB
:1044B0000298000230580690412080003058079042
:1044C0002120C000305808904320800030580990C7
:1044D0001120000130580A904520800030580B9080
:1044E0002320C00030580C904720800030580D9099
:1044F0000920400130580E90492080003058039028
:104500002520C000305804900F983946FBF777FFFC
:10451000064610983946FBF772FF05461198394652
:10452000FBF76DFF074628462946FBF72BFF05469C
:10453000304631460E4EFBF725FF2946FBF7C9FEF4
:10454000054638463946384FFBF71CFF2946019D82
:10455000FBF7BFFE13F03EFD059015AA07CA03AB9B
:1045600002F0E8FC03F0F6F870E72C480CE7C046D0
:10457000401220205B4552524F525D206273705FA3
:104580006C736D366473725F696E69745F6374789F
:10459000206661696C6564210D0000005B494E4630
:1045A0004F5D206273705F6C736D366473725F6908
:1045B0006E69745F637478204F4B2C2066696C744D
:1045C00065723D25730D0A005B494E464F5D2043E1
:1045D00072656174696E67204B462066696C74650C
:1045E00072202873746174696320616C6C6F632935
:1045F0002E2E2E0D0000000074132020B790010015
:10460000A69B443B6F12833A8FC2F53C0AD7233DE9
:10461000DD9001005D900100539101008C9001003C
:1046200070132020299101000AE81C41F0B58DB0DB
:104630000B20C44306F042FC002803D00B34204674
:104640000DB0F0BD07F05EFD002803D00A3420460F
:104650000DB0F0BD7D20C300A848042100252A46E6
:1046600005F090FD002803D0093420460DB0F0BDC0
:104670004120C600A2480421324606F015FB00285E
:1046800003D0083420460DB0F0BD05F075FDFCF7F1
:1046900004F90A9001210C910996CA074240009141
:1046A000019216460290974F9749984A38462B46F2
:1046B00001F062FE3E6307960A98786394493F20B2
:1046C00000060B903A46103223C23D7715200001B8
:1046D0003818FFF723FA0C98009001960A9E02966C
:1046E000384654308849894A2B4601F045FE8820D7
:1046F0003E508420079E3E5070203D540B987866B3
:104700008348B866FD662D20C0003818FFF706FA0A
:104710000C98009001960A9F02977A48A8307A492F
:104720007A4A2B4601F028FEDC2076490F50D8202B
:104730000E50C0200D50BC20754A0A50B8200B9A6C
:104740000A50C4200D5403200890C0010818FFF738
:10475000E5F90C9800A9C1C16A48FC306A496B4A66
:104760002B4601F009FE1320000166490F504B2033
:1047700080000E50452080000D5011200001644A39
:104780000A50432080000B9E0E502320C0000D5481
:104790003320C0000818FFF7C1F92846FDF744FD93
:1047A000FFF70CFB099805905A4804905A4803906B
:1047B000029501950C9FB8070A90009021200001F6
:1047C0005049081831462A462B4601F0CBFFBF203E
:1047D00080000A214B4A1150089800024F4911509D
:1047E0001B20000115504E4805F054FC4D4805F0C3
:1047F00051FC4DA005F04EFC4C4813F0B7FB4C4E5D
:10480000304613F0B3FB4B484B4912F023FB3046C4
:1048100013F0ACFB49A00421089112F01BFB1420FB
:10482000009001974C480D22022309990B9312F036
:1048300011FB37230093494828210A4612F00AFB4E
:1048400003950295464801900A9800900526720744
:104850004448454B12F0FEFA44486422314612F0B7
:10486000F9FA43480B221E23394612F0F3FA414865
:1048700013F07CFB404813F079FB40A013F076FB6B
:104880004CA0584B2A4612F0E5FA294813F06EFB6B
:10489000264813F06BFB0A9600963E02524853A13D
:1048A0003246184B10F083FC524F386000281CD061
:1048B0000B980090803650485049124B324610F009
:1048C00076FC7860002814D0089800900A980202BC
:1048D0004B484CA10B4B10F06AFCB860002800D18B
:1048E000ADE62C4620460DB0F0BDA41C20460DB010
:1048F000F0BD641C20460DB0F0BDC04658820100DA
:104900008882010028212020CDCC4C3F9A99993EE5
:10491000CDCCCC3D000096430000FA430000A040FF
:10492000DA840100E88401000A000000CA96010050
:104930009C84010040830100E284010020204D6F2F
:10494000746F727320203A20256C752028412F4205
:104950002F432F44290D0A00A3830100F882010090
:104960003333D33F718301009999E93FE483010018
:10497000088401006F8401003C8401002020466906
:104980006C74657220203A20436F6D706C656D65A4
:104990006E746172792F4D6164677769636B2F451F
:1049A0004B462F4D61686F6E792F4C4B462F4C5004
:1049B000460D00002020467573696F6E20203A2056
:1049C000436F6D706C656D656E7461727920666998
:1049D0006C7465722028616C7068613D252E3266AA
:1049E000290D0A00295CEF3FA12600006374726C58
:1049F0000000000030002020094A0000048501006A
:104A000069430000696D750010B5FFB099B00646A6
:104A10000025469535A801240470F04813F0A6FA45
:104A2000EF4813F0A3FAEF4813F0A0FAEE4813F0A2
:104A30009DFAEE4813F09AFAED4813F097FAED4814
:104A400013F094FAEC4813F091FAEC4813F08EFA54
:104A5000EB4813F08BFAEB4813F088FAEAA013F056
:104A600085FAF9A013F082FAD34813F07FFA712087
:104A7000800030181A9075208000301819901B2083
:104A80000001301822901520000130182690412096
:104A90008000301821902720C000301818906D2019
:104AA00080003018259079208000301820905BA875
:104AB000811C129101460B31099101460A310A917C
:104AC000014609310B91014608310C91C11D0D9130
:104AD000811D0E91411D0F91011D1091C11C11915D
:104AE000401C149036A8C11D139109301590FF2069
:104AF000F4302C903046903024903046B0301F90E7
:104B00003046E4302390F24F2F95279603E064203F
:104B100010F05DFB359CE00700D122E12D95469C0D
:104B20002E94A100EB482B914158EB4812F092F9DA
:104B30005420604334182A9410F000FBE46B10F00A
:104B400015FB2046FBF7F9FE0246E4480B4612F03F
:104B500081F910F0F3FA306829907568B76810F0A1
:104B600005FB2846FBF7E9FE054628913846FBF78A
:104B7000E4FE04460F462998FBF7DFFE02460B468B
:104B80000095289801A991C14121D54812F062F9F8
:104B900010F0D4FA706D2990B56DF66D10F0E6FA4C
:104BA0002846FBF7CAFE05460F463046FBF7C5FE12
:104BB00006460C462998FBF7C0FE02460B460095B8
:104BC0000197029603944221C54812F043F910F070
:104BD000B5FA249881692991C5691F98066810F073
:104BE000C5FA2846FBF7A9FE05460F463046FBF7F7
:104BF000A4FE06460C462998FBF79FFE02460B468C
:104C000000950197029603944321B54812F022F9CA
:104C100010F094FA239881692991C5692198066852
:104C200010F0A4FA2846FBF788FE05460F463046EA
:104C3000FBF783FE06460C462998FBF77EFE0246EC
:104C40000B4600950197029603944421A44812F064
:104C500001F918242E98444310F070FA269805594B
:104C60002A990A6929924E6989692A910019077D52
:104C7000446810F07BFA012F23D12046FBF75DFE3C
:104C800004460F462846FBF758FE0246009401975B
:104C900094480B4612F0DEF83046FBF74EFE044611
:104CA0000D462A98FBF749FE06460F462998FBF762
:104CB00044FE024600A8F0C08B480B4612F0CAF82A
:104CC00002E08A4813F052F910F038FA25982B992F
:104CD000445822982E99455C10F048FA012D04D1D1
:104CE0008348214612F0B6F802E0824813F03EF9FC
:104CF00010F024FA209801682E914468856810F01D
:104D000035FA2046FBF719FE2B902A912846FBF72F
:104D100014FE29902891FDF779FAFBF70EFE06465E
:104D20000C46FDF77DFAFBF708FE07460D462E9868
:104D3000FBF703FE02462B9800902A9801902998D1
:104D400002902898039004960594069707956A4860
:104D50000B4612F07FF835A800210170279E5C4FAA
:104D60002D9D5BA807F0B4F900280AD02F9C2F9442
:104D700064352C98854200D8C9E606F0A8F80025CD
:104D8000C5E62F9C0CE07F2818D1002C11D03846A6
:104D900012F060F8641E5BA807F09AF90028E6D1CB
:104DA0005BA800780C28EEDC0828EED00A2807D192
:104DB0006AE00024EFE7C046378F01000D2863D07A
:104DC00001462039C9B25E29E5D83E2CE3D836A980
:104DD000085507F0F5F9641CDDE7C0467C8E01003C
:104DE000358D01000D8D0100068E0100568D0100EC
:104DF0009E8D0100BA8C0100438E0100CA8F010014
:104E0000788C01007F8F01005479706520277475BC
:104E1000726E656E642720746F2066696E697368B0
:104E2000207475726E2028616674657220726561E7
:104E30006368696E672074617267657420616E676C
:104E40006C65292E0D0000005479706520276B6673
:104E500074756E65204E2720746F2072756E204B1E
:104E60004620706172616D65746572207377656547
:104E70007020284E207365632F7365742C203920B1
:104E800073657473292E0D002D9536AD20460024D0
:104E90002C541A4813F06AF82978202906D1697829
:104EA000202907D1AD1C29782029F8D0002906D166
:104EB00000F0B4FC002901D100F0B0FC6D1C687852
:104EC00020220646164388AB202E19D16D1C7CE0AB
:104ED000BF8A0100B8820100CC8B0100E28B010087
:104EE000308C0100F58B01000E8C0100A08E0100BA
:104EF0006C8B0100A98E01004E8C0100CA96010046
:104F000088AB1870A8780646164330AB202E01D126
:104F1000AD1C5AE030AB1870E878064616435AAB21
:104F2000202E01D1ED1C50E05AAB187028790646AE
:104F3000164359AB202E01D12D1D46E059AB1870F8
:104F400068790646164358AB202E01D16D1D3CE012
:104F500058AB1870A8790646164357AB202E01D1DE
:104F6000AD1D32E057AB1870E8790646164356ABD4
:104F7000202E01D1ED1D28E056AB1870287A064688
:104F8000164355AB202E01D108351EE055AB1870E5
:104F9000687A0646164354AB202E01D1093514E039
:104FA00054AB1870A87A0646164353AB202E01D195
:104FB0000A350AE053AB1870E87A0646164352AB3E
:104FC000202E01D000F02AFC0B351C700B46413B13
:104FD0001A2B00D21143642901D000F01FFC88A9CC
:104FE000097800295CD00B46413B1A2B00D21143B3
:104FF000722901D000F012FC30A90978002955D09F
:105000000B46413B1A2B00D21143762901D000F008
:1050100005FC5AA9097800294ED00B46413B1A2BB2
:1050200000D21143732900D0F8E359A90978002967
:1050300048D00B46413B1A2B00D21143632900D0C4
:10504000ECE358A90978002942D00B46413B1A2BC2
:1050500000D211436F2900D0E0E357A90978002955
:105060003CD00B46413B1A2B00D21143702900D093
:10507000D4E356A90978002936D00B46413B1A2BB8
:1050800000D2114355AB652900D0C7E31978002938
:1050900000D0C3E3FB490831097800292AD0BDE3D9
:1050A000F849491C0978002924D0B7E3FB49891C39
:1050B000097800291ED0B1E3F849C91C09780029F4
:1050C00018D0ABE3F549091D0978002912D0A5E3F2
:1050D000F249491D097800290CD09FE3EF49891D49
:1050E0000978002906D099E3EC49C91D09780029FF
:1050F00000D093E36D1C202807D12878202809D1FF
:10510000A91C68780D462028F7D0002800D185E337
:105110006D1E02E0002800D180E369780E46164338
:1051200051AB202E01D16D1C63E051AB1970A978F1
:105130000E46164350AB202E01D1AD1C59E050ABAA
:105140001970E9780E4616434FAB202E01D1ED1CA5
:105150004FE04FAB197029790E4616434EAB202E07
:1051600001D12D1D45E04EAB197069790E461643ED
:105170004DAB202E01D16D1D3BE04DAB1970A979CF
:105180000E4616434CAB202E01D1AD1D31E04CAB89
:105190001970E9790E4616434BAB202E01D1ED1D57
:1051A00027E04BAB1970297A0E4616434AAB202EE6
:1051B00001D108351DE04AAB1970697A0E461643D5
:1051C00049AB202E01D1093513E049AB1970A97AFA
:1051D0000E46164348AB202E01D10A3509E048ABF4
:1051E0001970E97A0E46164347AB202E00D015E31E
:1051F0000B351C700346413B2F931A2B03D30346F8
:10520000732B05D0A6E003461343732B00D0A1E017
:10521000A34B5B1C2E9351AB1F78002F00D194E061
:105220003B46413B3E461A2B00D21643742E48D1D2
:105230002B9350AE3378002B2ED01E46413E1A2EB3
:1052400000D21343612B2B9B3BD14FAB1E78002E1A
:1052500028D03346413B1A2B00D216432B9B722E8B
:105260002FD14EAB1E78002E22D03346413B1A2B55
:105270002A9700D216432B9B4DAF2997742E2A9F55
:105280001FD1299B1B78002B2B9B1AD1854B5E1DB0
:105290003378002B12D11BE1824B9E1C3378002BFC
:1052A0000CD115E17F4BDE1C3378002B06D10FE1CA
:1052B0007C4B1E1D3378002B00D109E1002F2B9B66
:1052C00043D01A2B00D21743742F43D150AB1B7815
:1052D000002B2ED01E46413E1A2E00D21343612BC6
:1052E00038D14FAB1B78002B26D01E46413E1A2EDC
:1052F00000D21343742B2DD14EAB1B78002B1ED044
:105300001E46413E1A2E00D21343752B22D14DABBF
:105310001B78002B16D01E46413E1A2E00D2134396
:105320004CAE732B16D13378002B13D15C4B9B1DE5
:105330000AE05B4B9B1C07E0594BDB1C04E0584B1D
:105340001B1D01E0564B5B1D2E932E9B1B78002BE3
:1053500000D1BDE02F9B1A2B03D303466F2B04D043
:105360002FE0034613436F2B2BD151AB1B78002B3F
:105370001BD01E46413E1A2E00D21343662B20D16D
:1053800050AB1B78002B16D01E46413E1A2E00D281
:1053900013434FAE662B14D13378002B11D1424BFF
:1053A000DB1C1B78002B0CD192E03F4B5B1C1B7865
:1053B000002B06D18CE03C4B9B1C1B78002B00D1B2
:1053C00086E02F9B1A2B03D30346732B04D039E0BE
:1053D00003461343732B35D151AB1B78002B26D0DA
:1053E0001E46413E1A2E00D21343742B2AD150ABD5
:1053F0001B78002B21D01E46413E1A2E00D21343AB
:105400006F2B1FD14FAB1B78002B5CD01E46413E4B
:105410001A2E00D213434EAE702B13D13378002BCB
:1054200010D1224B1B1D1B78002B0BD150E01F4BC2
:105430005B1C1B78002B05D14AE01C4B9B1C1B7886
:10544000002B45D06D1CCBB2202B08D12978202908
:105450000AD1AB1C69781D46CBB2202BF6D0002BAD
:1054600000D1DBE16D1E02E0002900D1D6E15BAB8B
:10547000197069780B461343202B05D16D1C1499C4
:10548000AFE1C0462B9001005BAB5970A9780B4689
:105490001343202B0CD1AD1C1299A2E12B900100DB
:1054A0003D9001004490010034900100BA8A01004F
:1054B0005BAB9970E9780B461343202B00D0BEE01C
:1054C000ED1C11998DE1CE4BDB1C1B78002BB9D163
:1054D0006C1CCBB2202B08D12178202909D1A31C28
:1054E00061781C46CBB2202BF6D0002B03D0641E73
:1054F00006E0002904D12F991A295CD301465CE00B
:1055000000251143C9B2202900D187E161194B78E8
:105510001343202B00D181E18B781343202B00D142
:105520007CE1CB781343202B00D177E10B79134337
:10553000202B00D172E14B791343202B00D16DE178
:105540008B791343202B00D168E1CB791343202BB7
:1055500000D163E10B7A1343202B00D15EE14B7A3B
:105560001343202B00D159E18B7A1343202B00D118
:1055700054E1CB7A1343202B00D14FE10B7B134333
:10558000202B00D14AE14B7B1343202B00D145E176
:105590008B7B1343202B00D140E1CB7B1343202B8B
:1055A00000D13BE1302DA6D0097C10351143C9B2A2
:1055B0002029ABD132E101461143279EC74F2D9DD3
:1055C00073295BD151A90978002932D00B46413BA0
:1055D0001A2B00D21143742950D150A909780029FF
:1055E00037D00B46413B1A2B00D21143612945D1DC
:1055F0004FA9097800293CD00B46413B1A2B00D219
:10560000114372293AD14EA90978002900D18CE0C2
:105610000B46413B1A2B00D211434DAB74292DD1BF
:10562000197800292AD1AE49491D0978002925D1C8
:1056300080E0AB49491C097800291FD17AE05BABB7
:10564000D97029790B461343202B08D12D1D1099B1
:10565000C7E0A349891C097800290FD16AE05BAB38
:10566000197169790B461343202B54D16D1D0F9985
:10567000B7E09B49C91C097800295BD02F991A29EA
:1056800000D2104373286BD151A80078002839D07C
:10569000014641391A2900D21043742860D150A81C
:1056A0000078002831D0014641391A2900D2104330
:1056B000612855D14FA80078002829D001464139EA
:1056C0001A2900D2104374284AD14EA80078002825
:1056D00034D0014641391A2900D2104375283FD1F0
:1056E0004DA80078002836D0014641391A2900D249
:1056F00010434CA9732833D10878002830D1794859
:10570000801D2AE07748401C27E07648801C24E072
:105710007448C01C21E05BAB5971A9790B46134357
:10572000202B0ED1AD1D0E995BE06D49091D097846
:105730000029A3D13046FDF7CDFBB4E26948001D36
:105740000BE05BAB9971E9790B461343202B22D117
:10575000ED1D0D9945E06348401D0078002802D0FA
:10576000FDF7C8FB9FE2FDF7BDFB5F4812F0FEFBB3
:105770005E4811F06FFB5E4811F06CFB5D4811F064
:1057800069FB5D4811F066FB5C4812F0EFFB5C487A
:1057900012F0ECFB87E25BABD971297A0B4613431D
:1057A000202B02D108350C991BE05BAB1972697A8A
:1057B0000B461343202B02D109350B9911E05BAB4B
:1057C0005972A97A0B461343202B02D10A350A9944
:1057D00007E05BAB9972E97A114320291ED10B35A2
:1057E00009990C702978202906D16978202909D1D6
:1057F000AD1C29782029F8D0002906D017E3C0462F
:10580000BA8A0100002900D010E30921CC435BA92A
:105810000E7831463A39A14200D3E8E236A8082290
:105820003849FAF704FD002800D110E236A8082212
:1058300035A1FAF7FCFC0028279E284F2D9D00D1AA
:1058400023E236983249884200D121E236A8052267
:105850003049FAF7ECFC002800D11DE236982E49B9
:10586000884200D11DE236A808222C49FAF7DFFC55
:10587000002800D11DE236A809222949FAF7D7FCF1
:10588000002800D126E236A808222649FAF7CFFCE4
:10589000002800D12FE236A806222349FAF7C7FCD8
:1058A000002800D12FE236A830A903F0C1FF00285C
:1058B00000D1FBE130AC46AA35AB2046314603F0BF
:1058C000FFF920781A2802D0062800D0EEE1174808
:1058D00012F04CFB00252F952BE0C046BF8A01003B
:1058E000449001003D900100748E0100878B0100FF
:1058F000FE8A0100358B0100C38A0100FB8E010086
:10590000B98E01002B900100656E636469616700C8
:10591000656E63003890010061646300549001007B
:105920004A9001001C90010024900100D58D0100D7
:1059300000255BA806F0CCFB00283DD15BA80078D1
:105940000C2810DC082810D00A2817D0014620396E
:10595000C9B25E29EDD83E2DEBD888A9485506F08E
:105960002FFC6D1CE5E77F2806D1002DE0D03846DE
:1059700011F070FA6D1EDCE70D28E7D188AC00202D
:105980002E906055F44812F0F1FA5BA9204603F01E
:105990004FFF002811D05BAC46AA35AB20463146FC
:1059A00003F08EF920781B2807D801242146814076
:1059B000F948014201D0E7E12E950FF0BFFB182016
:1059C000469F784326990C18207D2A90259E3068A2
:1059D000FAF758FF2B90F068FAF754FF28901898C0
:1059E00000681B90279DE86B1E907068FAF74AFFCD
:1059F0002990249800681D90B068FAF743FF064686
:105A0000239800682A9901291C9009D154207843D1
:105A10002818C16B2046FDF7CBFF2A90469F01E076
:105A200000202A90B8001999095817911A990F580F
:105A30000FF09CFB2B98FAF780FF009001915BA878
:105A4000B421D64A11F016FA04463846FAF71AFF7E
:105A50002B90B32C00D9EAE05BAF2C201690385580
:105A60002998FAF76AFF00900191B3202990051B4D
:105A7000641C38192946C94A11F0FCF9002800D5E0
:105A8000D5E0A84200D3D2E005195BAF169878554F
:105A90003046FAF752FF009001912998441B6D1C83
:105AA00078192146BD4A11F0E5F9002800D5BEE07D
:105AB000A04200D3BBE045195BAF169878552898F3
:105AC000FAF73BFF009001912998441B6D1C78194F
:105AD0002146B24A11F0CEF9002800D5A7E0A04235
