:020000040000FA
:1000000080362020D5000000D9000000DB00000071
:1000100000000000000000000000000000000000E0
:10002000000000000000000000000000652100004A
:10003000000000000000000021210000D92600007F
:10004000E3000000E300000023270000E3000000BD
:10005000E3000000E3000000E3000000E300000014
:1000600000000000E3000000E300000000000000CA
:1000700000000000E3000000E30000002D27000066
:10008000052700000F270000E3000000E300000048
:1000900019270000E300000000000000000000003D
:1000A000E3000000E300000000000000000000008A
:1000B000E300000000000000E3000000E300000097
:1000C0000348854601F00CF8004800478B3A0000D1
:1000D0008036202003480047FEE7FEE7FEE7FEE704
:1000E000FEE7FEE7C1000000F8B500242546002920
:1000F00004DA0E46012400214042B141002B04DA0B
:100100001E46002352420125B34100F0C8F98C4637
:1001100017461E46AC4203D0002540428D41AC46F6
:10012000002C02D0002657429E4161463A46334693
:1001300001B0F0BD30B5434351435C18010C130CC2
:100140000D465D432C1980B292B20546554351438A
:100150000A0C09044D1962415843010C000440196E
:10016000514130BD03460B439B0703D009E008C94A
:10017000121F08C0042AFAD203E00B780370401C57
:10018000491C521EF9D27047D2B201E00270401CE5
:10019000491EFBD270470022F6E710B513460A4607
:1001A00004461946FFF7F0FF204610BD0FB400B516
:1001B0008DB009900B9010A900200091C0430A90C7
:1001C00000200C9006480690064807906A4609A849
:1001D0000F9900F013FD0DB008BC04B018470000E3
:1001E0001D0C00003D0C000070B5064606F07CF9C1
:1001F000046805460A220021304600F031FD2C60DB
:1002000070BDF8B502464A40D40F42004B00520878
:100210005B089A4202D20246084611464A0023D0A1
:10022000C30D4A00DDB2120EAD1A202D35DA490297
:100230000126490AF6058A19002C00D052422021D5
:100240004F1B1146B9402A411018C20D9A4221D0C5
:10025000002C17D0012D08DCDA05801AD20F801986
:10026000D207DBB200F03CFDF8BDDA05801A0123AD
:1002700040001B06C01880185A428018CA0F10434D
:10028000490007E04908C2071143DA05801A8019BE
:100290004008801800F01CFDF8BD61000122511AD1
:1002A000001BF7E70122D2075140AAE70122D2073B
:1002B0005040A6E7024670B54A40D30FDB07400026
:1002C0002DD04A002AD0010E140E00021202091984
:1002D000400A520A8418E50104465443000A120AEF
:1002E0002E045043A4194219200CC543AA18120C1D
:1002F0000125AD03521C521912047F39240400D089
:10030000521C104301D44000491EC2B20C06C00961
:100310002018401C4008802A02D003E0002070BD55
:1003200040084000002900DA0020184370BD70B575
:1003300002464A40D50F40004A00ED0740085208E7
:10034000002814D0002A12D0C40DD30D4102012080
:10035000C0055202490A520AE41A091812187D34DB
:10036000914201D3641C00E04900002C01DA002016
:1003700070BD0023914201D3891A0343400849000C
:100380000028F7D100290AD0914202D10121C907E2
:1003900005E0914201D2012101E00121C943E005BC
:1003A000C018401900F094FC70BD0122D20700284B
:1003B00000DB101A002900DB511A814201D801200C
:1003C0007047002070470122D207002800DB101A76
:1003D000002900DB511A814201D30120704700201F
:1003E0007047C217C10F504010B54018CA07962376
:1003F000002100F075FC10BD10B5002296231146B7
:1004000000F06EFC10BDC20F410040020123400A03
:10041000DB05D207090EC0187F2901DA00207047DA
:10042000962903DC9623591AC84001E09639884082
:10043000002AF4D040427047C20FD2074000400863
:100440000BD0C10D0723DB01C91840020905400A82
:100450001143C2084007114370470020014670470E
:1004600070B50446002903D000202022012310E0AB
:10047000002801D00020C043C046C0460DE02546FC
:10048000D5408D4205D30D469540641B1D469540D1
:1004900040191546521E002DF1DC214670BDF0B505
:1004A0001FB40646002082B005464024019100900A
:1004B0001BE0019922460F46304600F033FE049AB5
:1004C000059B801A994110D310461946224600F028
:1004D00019FE361A8F410197224601200021009F04
:1004E00000F010FE38184D4100902046641E002890
:1004F000DFDC019B00982946324607B0F0BDFFB50E
:100500000025ED4385B00020009001909F685E6853
:100510001C46A1696D1C069888470290216A88478D
:100520000028F6D10298401C0CD0032040028643DC
:10053000002F19DD700614D502982B2809D02D281C
:100540000FD103E00020C04309B0F0BD01208002BC
:100550000643A1696D1C069888477F1E0290002FF4
:1005600002DD0298302803D00798002828D024E024
:10057000012040020643A1696D1C7F1E0698884732
:100580000290002F03DD782805D0582803D0079863
:10059000002810D011E00798002801D010280CD1B5
:1005A000012040028643A1696D1C7F1E0698884782
:1005B0000290102000E008200790C017039016E07A
:1005C0000A20F9E70120400206437F1E039B079A99
:1005D00001990098FFF7AEFD029AD3178018594190
:1005E00001910090A1696D1C069888470290002F28
:1005F00006DD0799029800F0C6FD02900028E1DAB6
:10060000E16906988847B00502D40120C0439BE702
:10061000F00710D1700610D5700505D50098019B24
:10062000002241429A4101E0019A00992068031D8D
:100630002360006806C0284686E72068011D216007
:100640000068019A0099F5E7FFB50027FF4383B0E2
:1006500000205C6801909E681D46A9697F1C049873
:1006600088470090296A88470028F6D10098401CE6
:100670000CD0032040028443002E19DD600614D5FF
:1006800000982B2809D02D280FD103E00020C0436B
:1006900007B0F0BD012080020443A9697F1C0498C3
:1006A0008847761E0090002E02DD0098302803D087
:1006B0000598002825D035E0012040020443A969AF
:1006C000761E7F1C049888470090002E03DD782852
:1006D00005D0582803D00598002810D022E00598AE
:1006E000002801D010281DD1012040028443A969AF
:1006F000761E7F1C049888470090102002E0082096
:1007000000E00A2005900DE0012149020C43059A02
:100710000199761E514308180190A9697F1C04981D
:1007200088470090002E05DD0599009800F02BFD0C
:100730000028E9DAE96904988847A00502D4012075
:10074000C043A5E7E00722D1600611D560050198F6
:1007500000D5404229680A1D2A600968220501D592
:10076000087014E0220701D5088010E008600EE050
:100770002868011D29600068210502D501990170D2
:1007800005E02107019901D5018000E001603846AC
:100790007EE7FFB5002083B000905068019091691A
:1007A0001446002697680498884705460C990698D1
:1007B000084305D009E0A169761C049888470546DE
:1007C000216A284688470028F5D1681C03D0019883
:1007D000C00704D017E00020C04307B0F0BD206878
:1007E000011D2160006800900DE00198C00704D150
:1007F000009805700098401C0090A169761C7F1E2F
:10080000049888470546002F1CDD681C1AD00698FE
:1008100000280FD0E817C00E401941118A00069930
:100820004009511840012A1A0968012090400142EC
:10083000DBD107E00C980028D7D1216A28468847E9
:100840000028D2D0E169049888470C98002807D185
:10085000002E05DD0198C00702D10098002101702B
:10086000A068B84204DD0C98002804D0002F02D004
:100870000120C043B1E73046AFE70000FFB508787C
:1008800089B01546FF2805D0491C2D2804D0002228
:10089000002407E000240BE00122F9E70A235C436F
:1008A0000419491C0878FF28F8D1002A00D06442B6
:1008B000002004902A7801462D2A01D02B2A0FD13E
:1008C0006D1C2D2A02D00022049209E00122FBE7D0
:1008D00000260A2233466D1CFFF72CFC38187141A4
:1008E0002F78FF2FF4D10C9AA218069202460A43E1
:1008F00004D0FF23069A9133DA4205DA00210998E1
:100900000A4606C00DB0F0BD0024B74AB54D2646D4
:10091000079200F095FE029006980391002801DAF4
:10092000474200E0074639050020AF4A001C51410C
:100930000191009012E0F80707D022462B4630467E
:10094000079900F0B9FA0646079122462B46104651
:10095000194600F0B1FA04460D467F10002FEAD187
:100960000698019B0028009A0399029806DA00F085
:100970000BFB3246079B00F007FB05E000F09CFAFA
:100980003246079B00F098FA049A002A02D001220E
:10099000D2075140099A03C2B4E7FFB591B00020D5
:1009A00009900025ED432E209E685C681F4601904B
:1009B000B9696D1C129888470090396A88470028E9
:1009C000F6D10098401C0AD00D20C0018443002EAF
:1009D00012DD00982B2809D02D280DD103E000202E
:1009E000C04315B0F0BD012080020443B9696D1CFD
:1009F00012988847761E009003A9600501D52D2026
:100A000000E02B206A461073491C0CA80F9102903D
:100A10000AE0B9696D1C12988847009001204002D5
:100A200004431398761E0560002E02DD00983028DE
:100A3000EFD001990098884245D18020044308E016
:100A40000998401E09900120400204431399681C34
:100A50000860B9696D1C761E12988847009030288E
:100A6000EED030E00199884205D1200603D48020E1
:100A70000443761E1DE0009805F008FE002825D0EE
:100A8000012149020C43009807AA0F99033230381C
:100A9000761E914208D208700F98401C0F902006D5
:100AA00007D50998401E03E0200602D40998401C8F
:100AB0000990A00502D51399681C0860B9696D1CDE
:100AC000129888470090002ECCDC59E0002E57DDAC
:100AD0000098652801D0452852D1A00550D50320A3
:100AE00000028443B9696D1C761E129888470090F5
:100AF000002E0CDD2B2804D02D2808D1FF2001303A
:100B00000443B9696D1C12988847761E0090E00571
:100B100001D52D2100E02B21029801700298401C84
:100B20000290019025E00120400204430EA90298A2
:100B30000131761E88420ED20098029930380006A4
:100B4000000E087003D10299019881420AD90298D7
:100B5000401C029006E0E00501D5244801E023484E
:100B600040420990B9696D1C12988847009013980B
:100B70000560002E04DD009805F088FD0028D2D124
:100B8000F969129888470F99FF200870029903AA03
:100B9000087000200A900B900CA90AA8099BFFF787
:100BA0006DFEA00502D40120C0431AE724200442B0
:100BB00009D0E00713D138680B9A0A99031D3B60EE
:100BC000006806C00BE00B990A9800F047FD01464B
:100BD000E00704D13868021D3A60006801602846C9
:100BE000FFE60000000014400000F03FF1D8FFFFD6
:100BF00002681378511801601846704710B5D1602B
:100C0000044951610449116200211161114600F04B
:100C1000C9FA10BDF10B0000751100004268002AEE
:100C200008D001680B78491C002B03D0521E06C067
:100C3000184670470121C160881E70474268002A2B
:100C40000BD0C3680168002B07D183688B4204D0A6
:100C5000491E521C06C0002070470020C043704748
:100C6000F7B5009C0F4600262578641C002D05D0A2
:100C700000F07CFA0068405DC007F5D12B2D02D052
:100C80002D2D18D0641E39462046029A00F026FC0D
:100C9000002F04D03968A14201D100993960710553
:100CA000022400290BDA4042002803DD05F01CFC79
:100CB0000460A007FEBD012080020643E3E7002890
:100CC000F8DA05F011FC04600048FEBDFFFFFF7F6D
:100CD000002904DA401C490001D140084000704757
:100CE00070B40024050C05D11024000402D10029A1
:100CF00021D01124050E01D100020834050F01D1C5
:100D00000001241D850F01D18000A41C002801DBF7
:100D10004000641C002908D020252E1B0D46F540FC
:100D2000A14000D001212943084301061B1B000AF2
:100D3000DB1D02D5002070BC7047DB051818801839
:100D40000029F8DA401C4900F5D170BC4008400089
:100D500070470000F0B507460846584087B0C00FFE
:100D6000049048000E46590040084908BC1A8841C2
:100D700005D2384631461E4617460B4602465800F5
:100D8000400810434CD0300D039040055900400DF1
:100D9000490D0590401A0290402872DA180301218B
:100DA000000B09050843019004980092002805D023
:100DB00001995242002088410092019002984021FE
:100DC0000A1A0199009800F09DF905460C466B46F9
:100DD00007CB00F0B8F9C0197141039A0E0D00233A
:100DE000D71756401A467A40164344D0049A002A30
:100DF0002DD0029A012A039A15DC1205C01A9141DE
:100E000001263605001C7141D20F059ED2070093C2
:100E1000019202962A46234600F0C0FB07B0F0BDBF
:100E200038463146FAE71605224A0F46B218C01A6C
:100E3000B74101210905001C4F4100187F411146AF
:100E400018187941E20F10436D19644113E0E2076D
:100E50006D0815436408C2071443039A012612055E
:100E6000C01A91413605001C7141CE07400830433D
:100E70004908C01851412A46234600F082FBCDE7BD
:100E8000FFE7049801224000C117121A00238B418A
:100E900004983146C417381AA141EEE730B4012452
:100EA000E407634030BC55E730B40124E4076140F7
:100EB00030BC4FE70000E0FFF0B51FB488B00B99DD
:100EC0000998002448400999C00F49004908099130
:100ED000C0070B990090490049080B91099908989F
:100EE000A64608431CD00B990A98084318D00998C5
:100EF00001244000420D4800410D099824050003DB
:100F0000000B204309900B980003000B20430B902B
:100F100050181C494018002201901446104605E064
:100F2000002001460DB0F0BD032801DA034600E0C1
:100F300003239C46C11A0AAE0AE05F0008ADED5BD0
:100F40004F00F75B7D430027AA187C41491C5B1EBC
:100F50006145F2DD410004AB5A522104120C0A43F0
:100F6000240C401C0828DFDB019802900099704691
:100F700001910090059B049A0799069800F00EFBDA
:100F8000D0E700000DFCFFFFF0B50C465C4085B0DB
:100F9000E40FE40703944C000026640859009446CB
:100FA000490802460296224321D062460A431ED0D7
:100FB0006200570D4A000E032303550D012402461B
:100FC0002C492405781B1B0B360B40182343264362
:100FD000614600901C46501AB44103D30098401C4F
:100FE000009002E0921800985B41002803DA00208C
:100FF000014605B0F0BD00200121090507468646DF
:1010000011E064461D46141BB54106D36546521BCC
:10101000B341744607430C43A646CD074008490830
:10102000284392185B4105460D43EAD11046184308
:1010300013D06046194650407140084306D06046C0
:10104000101AB34106D20122002306E00022012338
:10105000DB0702E00122D2435310009874460105D9
:10106000381C6141029C039D0019694100F089FA16
:10107000BFE70000FD0300004A0009030123090B3C
:101080001B0519430A4B10B5520D9A4202DA002093
:10109000014610BD064B34339A4203DC9A1A00F025
:1010A00041F810BD034BD21800F02CF810BD000021
:1010B000FF030000CDFBFFFF10B5002904DB012476
:1010C000E40740428C412146002B04DB1C460123EF
:1010D000DB075242A341994200D1904210BD00006B
:1010E000064C0125064E05E0E36807CC2B430C3C7B
:1010F00098471034B442F7D3FEF7E6FFE8710000DA
:101100000872000010B5202A04DB0146203A914005
:10111000002010BD914020239C1A0346E340194350
:10112000904010BD10B5202A04DB0846203AD0407C
:10113000002110BD0B46D340D0402024A21A91407C
:101140000843194610BD10B5202A06DBCB17084608
:10115000203A1041C1170B4306E00B461341D04023
:101160002024A21A91400843194610BD0048704738
:10117000586E000010B50446FFF7F8FF0068005DE8
:10118000C007C00F10BD3A2800D2303820230246D5
:101190009A43412A01D310463738884201D30020B0
:1011A000C0437047F3B58DB000200A9001200B902A
:1011B000002608460C300C46099062690121099806
:1011C0009047051E2ED0252D2DD0216A8847002856
:1011D00018D06269012109989047216A8847002840
:1011E000F7D1411E62690998904700E0761CA16919
:1011F0000D988847216A88470028F7D1E1690D9842
:101200008847DAE7A1690D9888470746A84201D1C7
:10121000761CD2E7E1690D9888477F1C02D10A98B5
:10122000002877D049E1002762693D463946099890
:1012300090472A280CD1626901210998904701251D
:1012400006E00A214F433F18303FEBD410200543FE
:101250006269012109989047014630390A2903D271
:101260009B498F42DEDCECE7E90600D4994F6C28FD
:101270000AD04C2810D0682824D06A282ED0742890
:101280000CD07A280AD00DE06269012109989047B4
:101290006C2823D004211CE0202005436269012131
:1012A00009989047A760656065284FD026DC5828CC
:1012B00039D01ADC452849D012DC252834D0412801
:1012C000B0D143E06269012109989047682802D0B3
:1012D00008210D43E6E70120C002DEE70220DCE73B
:1012E000462833D047282CD130E05B2870D06128C5
:1012F0002CD063286CD0642823D161E06F284FD0B4
:1013000009DC662822D0672820D0692826D06E28DC
:1013100017D12EE0CDE070284DD073286FD07528FE
:101320004ED078280DD154E0A1690D988847054624
:10133000252800D16CE7E1690D9888476D1C00D124
:101340006DE7BAE00A224CE00A2252E0012023466F
:101350006A46C0430D99FFF720FBA3E028464021D1
:1013600008436060A807234601D5002239E0002227
:101370003FE0E80700D020E72068011D21600068F9
:10138000290501D5067018E7290701D5068014E75D
:10139000A90703D5F117066041600EE706600CE768
:1013A0002846402108436060A807234601D508224B
:1013B00017E008221DE0484928460840606016E012
:1013C0002846402108436060A8072346BCD5B9E7FA
:1013D00015E02846402108436060A80707D523464A
:1013E00010220120C0430D99FFF789F85AE02346E7
:1013F00010220120C0430D99FFF726F952E0002189
:101400000C910B460091632802D05B2807D043E083
:10141000E80601D40120A060012000903CE0626950
:101420000121099890475E2805D101200C900146C2
:101430006269099890472169002906D10B4601AAE3
:101440008F00491CD3510829FADB002835D02169C7
:1014500000290ED1C117C90E09184A11930001AA1B
:101460009A1849094901411A012013688840034329
:10147000136062690121099890475D28E5D10C98B5
:10148000002808D0002001AB81005A58401CD243EC
:101490005A500828F8DB01AB01202246C0430D99C1
:1014A000FFF777F900280ADA401C06D10B980028CC
:1014B00003D00020C0430FB0F0BD0A98FBE7E90756
:1014C00002D10A99491C0A91361800200B9074E643
:1014D000CCCCCC0CFFFFFF7FF1F7FFFFF7B582B05C
:1014E000029C00272078641C15460197302802D002
:1014F000002D15D015E020780127641C782804D031
:10150000582802D0002D09D00BE0002D01D0102D5D
:1015100007D1002710252078641C02E0082500E090
:101520000A250026009610E0009901276943081853
:10153000020C294680B2714300908E18380486420E
:1015400001D3012001902078641C2946FFF71BFE7F
:101550000028E9DA0398002805D0002F01D0641E86
:1015600000E0029C04600198002806D004F0BCFF53
:1015700002210160C81E05B0F0BD00993004084387
:10158000F9E710B5002B08DA0024401C61419218DD
:101590005B411A4301D14008400010BDF0B51FB4B3
:1015A00082B005460C0003D0084604F085FF02E037
:1015B00004F082FF20300246009021462846FFF7C3
:1015C000A1FD049B059A04460F46184311430843A6
:1015D00014D0184610431BD0009840210A1A184610
:1015E0000599FFF79FFD05460E46009A0599049858
:1015F000FFF788FD084305D0012004E02046394666
:1016000007B0F0BD0020C11705430E432C433743FC
:1016100000990E986305401A7905E40A00220C43EC
:10162000FD0A0A3002D500200146E9E7010510193C
:1016300069410C9C0D9D00196941FFF7A2FFDFE78E
:101640000EB5054A02920022009213460192FFF75E
:10165000A5FF03B000BD000033040000CB0FDB0783
:10166000490010B5490802460A4307D00A0D07246D
:101670000903E401090B121B002A01DC002010BD44
:10168000C900440F0C43C100E018D2058018FFF7D1
:101690001FFB10BD82B001900091009B0199034A8D
:1016A00088581843885002B07047C0464810000060
:1016B00010B585B00092024600980B9C0A9C099CCC
:1016C000089C079C049203AA11700290019302984F
:1016D0000199084307990843089908430999084361
:1016E0000A9908430B9908430499127892008918C3
:1016F0002322D201885005B010BD81B0009000991E
:1017000011200202885801231843885001B0704705
:1017100082B001900091009B0199034A88581843B8
:10172000885002B07047C0462810000081B0009079
:1017300000990120C2025148885001B07047C0464C
:1017400010B584B0079C069C03900291019200930F
:1017500003980A4940180299019A1143009A1143CB
:10176000074A00F04CF80398064940180699079A72
:101770001143054A00F043F804B010BD0411000005
:10178000010013000811000007001F1F81B0009026
:101790000099744A7448885001B07047B0B50A780F
:1017A000032313400B4A84580B4D2540EB18A92402
:1017B00024061B198350072212064B68134011247C
:1017C000240205599543EA1802510019497801612C
:1017D000B0BDC04608080000FCFFFF0082B00190C9
:1017E0006846018000880199014A885002B070471C
:1017F00014110000811E091F00BFFCD2704784B085
:10180000039002910192039800680090009801995A
:101810008843009000980299019A11400843039967
:10182000086004B0704782B001900091009801995F
:1018300095225201885002B0704782B00190009109
:101840000098019995225201885002B0704700001B
:1018500082B00190009100980199024A885002B02C
:101860007047C046D012000081B00090009901205E
:10187000C202D148885001B07047C046010000261E
:1018800010B584B0069C03900291019200930298D7
:1018900001990843009908430699084303490843FE
:1018A00003998900244A885004B010BD81000400C7
:1018B00081B00090009881001F4A8120885001B0BB
:1018C0007047C04610B584B0069C03900291019207
:1018D0000093029801990843009908430699084328
:1018E0008121084303998900134A885004B010BD30
:1018F00081B00090009881000F4A0020885001B00C
:101900007047C04682B00190009100980349084397
:1019100001998900084A885002B07047800004008D
:1019200082B00190009100988021084301998900BC
:10193000014A885002B070470480424082B0019052
:10194000009101982721C90140580099084002B030
:101950007047000081B000900099024A0248885008
:1019600001B0704704080000030000B182B001908C
:10197000009100980199024A885002B07047C04611
:101980009012000082B00190009100980199024AE3
:10199000885002B07047C046B0120000F0B584B065
:1019A00001242202344B1968039291431960704953
:1019B0000D686D04FCD5457E25409E69A6437419CB
:1019C0009C612024045D03252C40DE69AE4334195C
:1019D000DC611F4C256805262660466A37681F6251
:1019E00076685E6207262E402660C4697F252D0238
:1019F000DE69AE436406640C3419DC61076845682F
:101A000082680092C66802690192426902929A69EC
:101A1000104C14403A07120B2D03ADB2AA183243F2
:101A2000009D2D072D0D1543019A1543029A15436C
:101A3000007E2843084A0240101998611868039AEA
:101A40001043186008688005FCD504B0F0BDC0469E
:101A5000001340408D00F0FF72FF0F000649086838
:101A6000012290430860704703490868012212026E
:101A7000904308607047C04608010B403B49086826
:101A800001221203104308607047C04638480068BE
:101A90007047C04681B0014668460170007802492F
:101AA000086001B07047C04608030B4080B582B0A3
:101AB000014601A8018001880F2002022B48FFF790
:101AC0009EFE02B080BDC046F0B5124B1D46083DDB
:101AD0002E680124A6432E600326360330401F687B
:101AE000B743381818601868FF26B043C9B24018C9
:101AF000186028682043286018682107002A06D04B
:101B0000084318601A480168C905FCD5F0BD884330
:101B10001860F0BD10010B4080B582B0014601A8ED
:101B20000170017802480322FFF769FE02B080BD10
:101B300000010B4080B582B0014601A80170017818
:101B40000A483022FFF75BFE02B080BD074988607B
:101B5000074802689202FCD5012212040B68134365
:101B60000B600168C906FCD57047C04604010B40F4
:101B700004020B4081B000900099024A0120885075
:101B800001B070470811000082B001900091009BE5
:101B90000199034A88581843885002B07047C046DC
:101BA0002810000081B0009000990120C202024874
:101BB000885001B07047C0460100002681B00090F7
:101BC0000098812149014058C0B201B0704700001F
:101BD000F0B585B02F4A851811221202821803929F
:101BE0004A7A521ED3B201260024022B0194009699
:101BF0000DD852B2920028A4A7584924E6013446D1
:101C00005C43A4190294274CA2585B1C03E00222F7
:101C10002346029437464C6804956C60CE688F2545
:101C20002E4016433122D20184189B00E258AA4369
:101C30003243E250CD688E263540BA00A758B743EC
:101C4000ED19009E3543A550A44C0019C458934D7E
:101C50002C40154EA419641CC45083582B409B196A
:101C600083500398019A02600878012801D0029AF3
:101C700002E02020029A0243087ABD21014011436C
:101C8000049B18684A4A02400A4302201043186025
:101C900005B0F0BD041800000000000003000000C3
:101CA000020000005C6E000001000200F0B5B04AC6
:101CB00082183B4BC31808794E793A4D774C002E69
:101CC00023D0202804D00526F601002803D003E005
:101CD000354E002800D18826576F2F40374357676D
:101CE000976F2F4037439767566B26405663966B26
:101CF000264096630026566596658F26F6435F68F4
:101D000037405F609F6837409F608E790968202860
:101D10000BD0002819D1491E5160D76E2F40882161
:101D20000F43D7661746703719E0491E5160D16ED0
:101D300029401D4F3943D166116F2940394311673E
:101D400001214907194D174609E049085160D76E2E
:101D50002F400521C9010F43D766174670373C68ED
:101D60002C400C433C60D16A4C4C2140D162116B39
:101D7000214011630021D16411658F21C943D46FC3
:101D80000C40D4671C680C401C600643BD203040EA
:101D90001168074B0B40C018801C1060F0BDC04696
:101DA0008418000024493E0001040000FFFFFFCF1B
:101DB0004000FFCFB0B54A68364BC2506C4A80181D
:101DC0000A78222A58D8930001A4E3589F46C046B7
:101DD0006F1E0000791E00006F1E0000791E0000BB
:101DE000791E0000791E0000791E0000791E000097
:101DF000791E0000791E0000791E0000791E000087
:101E0000791E0000791E0000791E0000791E000076
:101E10005D1E0000791E00005D1E0000791E00009E
:101E2000791E0000791E0000791E0000791E000056
:101E3000791E0000791E0000791E0000791E000046
:101E4000791E0000791E0000791E0000791E000036
:101E50005D1E0000791E00005D1E000003231B07AD
:101E600004689C4301235B07E318036004E0032339
:101E70001B0704689C4304600B69C360CB68064C75
:101E80001C40C36A054D1D402B19C362097A1143DA
:101E90000160B0BD08180000777702008888FDFF58
:101EA00081B000900099714A7148885001B0704724
:101EB00082B001900091009801991122120288507D
:101EC00002B0704710B507239B0419409200801898
:101ED000024A84589C436118815010BD301800009C
:101EE00010B5029CA400001911431943014A815006
:101EF00010BDC0465018000092008018014A815061
:101F00007047C0461018000010B501221203831854
:101F10000C789C604B7883508978014A815010BDC1
:101F20000C11000010B586B001930B4601460198D4
:101F3000059104A90B8003AB1A8002AA10800598B2
:101F40000B4C001909881B88194312881143024A57
:101F5000FFF755FC06B010BD80FF000081B0009077
:101F60000099034A885801231843885001B07047EC
:101F70000418000081B000900099112002028858D6
:101F800001231843885001B07047000082B00190CF
:101F90000091009B0199034A88581843885002B069
:101FA0007047C0462810000081B0009000990120C1
:101FB000C2020248885001B07047C04601000026A6
:101FC00081B000900098812149014058C0B201B011
:101FD00070470000B0B51122120283580124A343B8
:101FE00083500B888C781C438B882343094C1C40FE
:101FF0008358094D1D40631983508B79CC791C435C
:10200000097A21437E231940801842689A43511867
:102010004160B0BD18670000E798FDFF81B00090F7
:102020000098084940580121084001B07047C04657
:1020300081B000900098034940580121084001B048
:102040007047C0460811000081B000900098024916
:102050004058C0B201B070472411000081B0009018
:102060000099024A0248885001B0704704080000F5
:10207000030000B180B584B00390029101920398EF
:102080000B49401802990B4AFFF7B9FB03980A491C
:10209000401801993F22FFF7B2FB0399074A8818BD
:1020A000895801221140FFF7AAFB04B080BDC04649
:1020B00010110000FFFF00001411000004110000C7
:1020C00010B50122120383180C789C604978815066
:1020D00010BD80B582B001900091019811210902D4
:1020E000401800990322D203FFF789FB02B080BD9C
:1020F00082B00190684601700078019989225201EE
:10210000885002B0704782B0019068460170007834
:10211000019989225201885002B0704700000000E6
:10212000EFF309800E4B1A6820381060F0C0444667
:102130004D4656465F46F0C008B572B603F0A8FAA1
:1021400062B60CBC116808681030F0C8A046A946F9
:10215000B246BB4680F309882038F0C81847C0460D
:102160001C0420207047000080B58AB01749012068
:10217000079080070990FFF711FB07990998002342
:1021800006930193009349041A46FFF7D9FA069B78
:1021900009980493039302930193009319461A46F6
:1021A000FFF786FA09980A49FFF718FB079909987B
:1021B00009020891FFF76EFA08990998FFF7A8FA43
:1021C0000998FFF79AFA0AB080BDC046686E000011
:1021D000409C000080B582B0084909480190FFF793
:1021E00093FE01980749FFF7F3FC01982D49FFF78B
:1021F000CBFC0198FFF7BEFC02B080BD806E0000F2
:1022000000A08640706E000080B582B00849094881
:102210000190FFF779FE01980749FFF7D9FC019873
:102220002049FFF7B1FC0198FFF7A4FC02B080BD84
:10223000946E000000000940846E000080B582B0FA
:10224000084909480190FFF75FFE01980749FFF729
:10225000BFFC01981349FFF797FC0198FFF78AFC30
:1022600002B080BDA86E000000400840986E0000DB
:1022700080B582B0084909480190FFF745FE0198F2
:102280000749FFF7A5FC01980649FFF77DFC019877
:10229000FFF770FC02B080BDBC6E0000008086407D
:1022A000AC6E00000203000080B58EB00920FFF77D
:1022B0001FFB0A20FFF71CFB002006900421019160
:1022C000FFF72EFB47480A9001210291FFF7C0FA61
:1022D00001990298FFF724FB0A9802210391FFF766
:1022E000B7FA242008210991FFF71AFB02990A98EE
:1022F000C903FFF7ADFA212006210491FFF710FB77
:1023000002990A980903FFF7A3FA01993A20FFF707
:10231000F9FA04992620FFF7F5FA04992D20FFF722
:10232000F1FA342005210591FFF7ECFA0399142006
:10233000FFF7F6FA03991520FFF7E4FA0298069BD7
:102340000093020423201946FFF7BCFA029B03986E
:10235000069900915A040792DB040893FFF790FA5C
:102360000699079A089B00910720FFF789FA0498BD
:102370000699079A089B0091FFF782FA059806993B
:10238000079A089B0091FFF77BFA2F20FFF790FA3E
:102390003320FFF78DFA0998FFF78AFA0D20FFF72F
:1023A00087FA0E20FFF784FA0F20FFF781FA122038
:1023B000FFF77EFA1320FFF77BFA0A980A490B9180
:1023C000FFF731FA0A980B99FFF742FABA480C90D6
:1023D00006490D91FFF727FA0C980D99FFF738FA87
:1023E0000EB080BD00000A40904300000C001001B8
:1023F00080B586B03349B1480590FFF785FD059853
:102400003149FFF753FC05980023029319461A46F9
:10241000FFF788FD029B0598009319461A46FFF7BF
:102420005FFD029A05981146FFF74CFD029A059848
:102430001146FFF761FD029B059801210191009172
:1024400019461A46FFF74CFD019A02990598FFF7C5
:1024500039FD019A02990598FFF74EFD029B0598F8
:1024600002210491009119461A46FFF739FD02999D
:10247000049A0598FFF726FD0299049A0598FFF73C
:102480003BFD029B059803210391009119461A46D2
:10249000FFF726FD0299039A0598FFF713FD0299AD
:1024A000039A0598FFF728FD0598FFF763FB049949
:1024B0000598FFF769FB05980F21FFF7F9FC06B0B7
:1024C00080BDC046BF6E0000C46E000080B5FFE74F
:1024D000FFF7DCFA03490840884201D0FFE7F7E73D
:1024E00080BDC046000B200080B582B00020019066
:1024F000FFF7D0FA012000904002FFF7D7FA0198C9
:10250000FFF70AFBFFF7AAFAFFF7AEFA009A0320DB
:1025100000030A21FFF7D8FA0648FFF73FFA102018
:10252000FFF708FBFFF7AAFA0198FFF70FFB02B0CD
:1025300080BDC046CC6E000080B582B00A496448B8
:102540000190FFF7E1FC01980849FFF733FC01987F
:102550000221FFF719FB1320032100F03FF9019836
:10256000FFF708FB02B080BDF46E0000F86E0000BB
:1025700080B582B00F4957480190FFF7A1FD01983F
:102580000D49FFF727FD01980021FFF7A2FD0198F3
:1025900015212D22FFF76EFD019801218902FFF719
:1025A000F5FC0F20032100F019F90198FFF7E2FC78
:1025B00002B080BD0C6F00000E6F000080B500F00F
:1025C0002BF8FFF771FEFFF78FFFFFF711FFFFF703
:1025D0001BFEFFF7FFFDFFF74BFEFFF72FFEFFF798
:1025E000ABFFFFF7C5FFFFF7BFFDFFF76FFF064922
:1025F000B8220020885405499C23C8540449C85473
:102600000449885480BDC04660012020200020205D
:10261000C00020201C02202080B58AB025480090F0
:10262000FFF798F924480190FFF794F923480290A6
:10263000FFF736FC22480390FFF732FC2148049054
:10264000FFF72EFC20480590FFF72AFC1F48069054
:10265000FFF726FC1E480790FFF722FC1D48089054
:10266000FFF7FCFC012080070990FFF78FF8009826
:10267000FFF7FAF80198FFF7F7F80298FFF792FAD8
:102680000398FFF78FFA0498FFF78CFA0598FFF785
:1026900089FA0698FFF786FA0798FFF783FA0898F1
:1026A000FFF782FC0998FFF741F81020FFF7A2F826
:1026B0000AB080BD00000A4000200A4000008640A9
:1026C0000000094000A0864000808640004008408D
:1026D000002086400080104080B582B002F058FD96
:1026E000019003F073FC002805D0FFE701200007EC
:1026F00003490860FFE7019802F09FFD02B080BD2A
:1027000004ED00E080B5032000F020FC80BD80B522
:10271000022000F01BFC80BD80B5012000F016FCFB
:1027200080BD80B5002000F011FC80BD80B500F0B8
:10273000DDFE80BD81B00146684601700021405633
:10274000002809D4FFE7684601781F2001400120D6
:1027500088400C490860FFE701B0704781B001462E
:102760006846017000214056002809D4FFE76846FA
:1027700001781F2001400120884002490860FFE7DE
:1027800001B0704780E200E081B001466846017008
:1027900000214056002809D4FFE7684601781F2031
:1027A0000140012088400C490860FFE701B07047F4
:1027B00081B001466846017000214056002809D4C6
:1027C000FFE7684601781F20014001208840024948
:1027D0000860FFE701B0704700E100E070B582B02B
:1027E000024601A80270009100214056002816D42C
:1027F000FFE7002401A908570322D3431840174AD2
:10280000805809578C07E50EFF24AC40A043009C7C
:10281000A401E4B2AC402043194088501AE001A959
:1028200008780F24204008380322D34318400A4A6E
:102830008058002549578D07EE0EFF25B540A84367
:10284000009DAD01EDB2B540284321400839194043
:102850008850FFE702B070BD1CED00E000E400E02E
:1028600080B592B0119039481090FFE70CA800F0A5
:1028700091FA00200790FFE70798032810D8FFE798
:10288000079881000CA84058052100F05BFA0799D1
:102890008A0008A98850FFE70798401C0790EBE7DB
:1028A00001F018FC00200690FFE70698002819D1D7
:1028B000FFE700200590FFE7059803280BD8FFE706
:1028C0000598820008A8805823498850FFE705989A
:1028D000401C0590F0E7FFE701F000FC0698401C63
:1028E0000690E2E700200490FFE70498032828D828
:1028F000FFE704991648405CC007002801D1FFE7B4
:102900001BE00498810008A84058FDF76AFD039079
:1029100004983C2141430F48401803990B4A00F0AA
:1029200091F8029004A8007801900298FDF76BFDE1
:102930000146019800F062FCFFE70498401C0490F7
:10294000D3E7052001F0F3FB90E7C0460AD7A33B8D
:102950005005202058052020FC04202080B584B09C
:1029600000F08EFB02900298002803D0FFE7029847
:1029700003902FE001F0EAFB184803F08DFD0520DD
:1029800000901748174901221202002301F0AAFB08
:102990000146154801600068002804D1FFE70920BE
:1029A000C043039016E00220009010481049032213
:1029B000D201002301F096FB01460E480160006839
:1029C000002804D1FFE70A20C043039002E0002062
:1029D0000390FFE7039804B080BDC046BC700000C0
:1029E00061280000CA7100001C052020F9290000A0
:1029F000CF7100004405202080B598B0179001A841
:102A000000905821FDF7C7FB009900200870029044
:102A1000C8200390542201208854FFE701A80078C1
:102A2000042807DCFFE701A801788A0004498958D7
:102A3000884703E001A900200870FFE7EEE7C046E1
:102A4000506F000080B59EB01D901C911B921D9888
:102A5000406A1C99FDF726FC1A90002019901D98D9
:102A6000007B002800D085E01D983821405CC0071D
:102A700000281DD1FFE71B980021FDF796FC0028D8
:102A800016D1FFE71A981D991491896AFDF7B9FBD1
:102A90003F210906FDF70EFC149A1B99126B139245
:102AA000FDF708FC1399FDF7ACFB14990863FFE7E9
:102AB0001D98C2698169006B00F056FD1D9908637D
:102AC000002018901D983821405CC00700282FD1A5
:102AD000FFE71B980021FDF768FC002828D1FFE7DD
:102AE0001A981D99896AFDF7DDFB1B99FDF71FFCFC
:102AF00018901D98006A0021FDF757FC002816D198
:102B0000FFE71D98416B1291016A7F20C005FDF718
:102B1000C9FB129911901898FDF7C4FB0146119852
:102B2000FDF7C8FB1299FDF76CFB1890FFE7FFE774
:102B300018981D9948631D990F9108680D901A986F
:102B40000C904868096BFDF7B5FB0C9902460D988F
:102B50000E92FDF7AFFB0E99FDF753FB01460F9860
:102B6000109180681899FDF7A5FB1099FDF749FBB6
:102B7000199073E01D983821405CC007002813D0DD
:102B8000FFE71D9801680A911A9909914068FDF7BD
:102B900091FB099902460A980B92FDF78BFB0B9962
:102BA000FDF72FFB199052E01A981D99896AFDF7DD
:102BB00079FB1790002116911B98FDF7F6FB002872
:102BC00012D1FFE71A9807901D980890816A08466D
:102BD000FDF717FB01460798FDF764FB0899C96AE2
:102BE000FDF70FFB1690FFE71D9804900168029116
:102BF0001799019140681A99FDF75CFB019902460B
:102C000002980392FDF756FB0399FDF7FAFA014685
:102C10000498059180681699FDF74CFB0599FDF71E
:102C2000F0FA15901D980690006B1599FDF7E9FADA
:102C30000699CA69896900F097FC1D9908631D9877
:102C400042690169006B00F08FFC1990FFE7199849
:102C50001D9908631D99886AC862FFE71A981D9933
:102C600088621D993822002088541D9842690169A4
:102C7000199800F079FC1EB080BDB0B586B004464E
:102C80000C980B980A98059404910392029301A959
:102C9000087004980599086003980599486002989F
:102CA000059988600198059908730B980599086142
:102CB0000C98059948610B98059988610C980599BD
:102CC000C861059900200862059800F002F806B076
:102CD000B0BD81B0009000990020486200998862E0
:102CE0000099C862009908630099486300993822E6
:102CF0000120885401B0704783B002900191009286
:102D000001980299886100980299C86103B07047E0
:102D100010B584B003900291019200930298039938
:102D2000086001980399486000980399886004B08E
:102D300010BD82B00190009100980199486202B0E4
:102D40007047000080B584B002900191019800287E
:102D500005D0FFE77C480068002803D1FFE700208A
:102D6000039011E00298C117094A00230093FDF770
:102D7000E1F9009B744A1268FDF7B6F9009B019ACD
:102D8000FDF7B2F90390FFE7039804B080BDC04699
:102D900060EA000080B586B004900498002804D151
:102DA000FFE705A9FF2008703FE001F093F900203C
:102DB0000390FFE70398002833D1FFE7002002903B
:102DC000FFE702985F490968884211D2FFE702983D
:102DD0008000A1490858049A029B9B00D050029899
:102DE000820000208850FFE70298401C0290E8E72C
:102DF000544800680190FFE7019803280AD8FFE7CC
:102E000004990198820000208850FFE70198401C37
:102E10000190F1E7FFE701F061F90398401C03908E
:102E2000C8E705A900200870FFE7002105A8405663
:102E300006B080BD80B588B00690059104924048E8
:102E40000078C007002804D0FFE707A90020087019
:102E500070E0069800280CD0FFE70598002808D0FD
:102E6000FFE70598042804D8FFE70498002804D158
:102E7000FFE707A9FE2008705CE006987449086027
:102E800005983049086004982F4908600020039095
:102E9000FFE703982B49096888420ED2FFE70398A1
:102EA00082006D4900208850039A6A4901208854A5
:102EB000FFE70398401C0390EBE700200290FFE738
:102EC00002982049096888422DD2FFE760480068CF
:102ED000029A0C215143405C00F040FC014601A8DD
:102EE000017000214056002804D0FFE707A9F72011
:102EF00008701FE056480068029A0C215143405C5C
:102F000000F0C8FC014601A80170002140560028CD
:102F100004D0FFE707A9F72008700BE0FFE702984D
:102F2000401C0290CCE706490120087007A9002048
:102F30000870FFE7002107A8405608B080BDC046D2
:102F400038052020240520203C05202010B58EB017
:102F50000DA9079108703E48099000680A780C2175
:102F600008915143405C00F027FC079A08990346FA
:102F700009980CAC23700068127851434018017A0C
:102F80000BA8017000214056002804D1FFE70BA9CF
:102F900001200870FFE72E4800680DA90A780C216F
:102FA000514341184878496800F04DFB0AA9087060
:102FB0000CA800780690012808D0FFE706980228A0
:102FC00023D0FFE7069804283ED03EE00AA8007808
:102FD000C10700200390C043049001200029059000
:102FE00001D104980590039B059A0DA8047819490E
:102FF0000A55027889560BAAD3564B4300788200B3
:1030000015498858C018885020E00AA80078C107E0
:1030100000200090C043012201920029029001D1BA
:1030200001980290009B029A0DA8047809490A555C
:10303000027889560BAAD3564B4300788200064982
:103040008858C018885001E000E0FFE70EB010BDBE
:1030500020052020080020202805202080B582B0EF
:10306000012291030020019000F04AFB019802B078
:1030700080BD80B501208103002000F022FB80BDCF
:1030800080B584B0FFF7EAFF014602A80170002175
:103090004056002804D0FFE70020C043039035E0ED
:1030A00000F0FEF9014602A80170002140560028F8
:1030B00004D0FFE70120C043039027E01548042116
:1030C00000220192144B00F02FF80199024602A849
:1030D00002704056002804D0FFE70220C04303904E
:1030E00014E00E484121CA000421FFF7A3FE014667
:1030F00002A8017000214056002804D0FFE70320F9
:10310000C043039002E000200390FFE7039804B05F
:1031100080BDC046646F0000204E0000186F0000A4
:10312000784800687047C04610B588B00690059191
:1031300004A80270039395480078C007002804D0C3
:10314000FFE707A90020087052E0069800280CD07D
:10315000FFE70598002808D0FFE70598042804D861
:10316000FFE70398002804D1FFE707A9FE200870B5
:103170003EE00698874908600598834908600499ED
:103180008348017003995F4A1160007800F082FB68
:10319000014602A8017000214056002804D0FFE734
:1031A00007A9F720087023E000200190FFE70198AD
:1031B00075490968884214D2FFE701A8007801F038
:1031C00083FF7348007873490968019B18225A43AA
:1031D0008958002200F02CFBFFE70198401C019069
:1031E000E5E76A490120087007A900200870FFE799
:1031F000002107A8405608B010BDC04680B58AB06F
:10320000024608A80270079100785F490968884261
:1032100004D3FFE709A9FE2008706DE05B48007841
:10322000C007002804D1FFE709A9FB20087063E06C
:103230005848006808A90A78182151434018017DB0
:1032400006A8017000214056002804D1FFE706A916
:1032500001200870FFE70799002206A8805648431E
:103260000590059827490A68514200F09CF904909E
:103270000498012812DBFFE708A80390007801F00A
:103280003BFF039A424800784249096813781822A4
:103290005A438958049A00F0CBFA29E00498002890
:1032A00013D5FFE708A80290007801F03DFF029ACD
:1032B0003748007837490968137818225A438958E3
:1032C000049A524200F0B4FA11E008A80190007884
:1032D00001F0E2FE019A2E4800782E490968137821
:1032E00018225A438958002200F0A2FAFFE7FFE7AC
:1032F00009A900200870FFE7002109A840560AB07C
:1033000080BDC0464806202080B584B0024602A891
:10331000027001AA117000781B490968884204D321
:10332000FFE703A9FE20087028E018480078C007CE
:10333000002804D1FFE703A9FB2008701EE0144811
:1033400000781449096802AA137818225A43895848
:10335000002200F06DFA01A80078012805D1FFE7EE
:1033600002A8007801F098FE04E002A8007801F0BD
:10337000ABFEFFE703A900200870FFE7002103A8C8
:10338000405604B080BDC0464C0520205405202086
:103390004C0620204805202081B000900099002094
:1033A00088600099C86001B0704783B001900091B7
:1033B0000198C06801998968884204D1FFE702A991
:1033C0000020087011E0019908688968405C009944
:1033D000087001988068401C01994A68521E10408C
:1033E000886002A901200870FFE702A8007803B0F6
:1033F000704783B002900191009201980299086091
:103400000098029948600299002088600299C8607B
:1034100003B0704784B0029001A801700298C068A0
:10342000401C02994968491E084000900098029982
:103430008968884204D1FFE703A9002008700BE0E7
:103440000198029A1168D268885400980299C8605D
:1034500003A901200870FFE703A8007804B07047B3
:1034600080B582B000900098002804D1FFE701A940
:10347000FF2008700EE000993A48FFF796FF0028F9
:1034800004D0FFE701A90020087003E001A9F8209B
:103490000870FFE7002101A8405602B080BDC04679
:1034A00080B582B00F480078C007002804D0FFE73D
:1034B00001A9002008700FE02A480B498022FFF77D
:1034C00098FF0020009000F007FA0098054A0121BB
:1034D000117001A90870FFE7002101A8405602B051
:1034E00080BDC046400520204D06202080B582B01A
:1034F000002000F019FA014601A8017000780128A7
:103500000ED1FFE70020694600F035FA002806D109
:10351000FFE7684601781348FFF77CFFFFE7FFE706
:1035200002B080BD80B586B0014605A80170017863
:103530000020019000F048FA0199024604A80270A8
:10354000415602910820C0430029039001D10298FE
:103550000390039806B080BD80B50248FFF71CFFBA
:1035600080BDC046D006202080B584B00290019175
:10357000009202980199FCF726FF002803D1FFE78B
:10358000019803900CE002980099FCF70EFF0028C8
:1035900003D1FFE70098039002E002980390FFE751
:1035A000039804B080BD84B002900191009202980B
:1035B0000199884203DAFFE7019803900AE0029834
:1035C0000099884203DDFFE70098039002E002982B
:1035D0000390FFE7039804B07047000080B582B005
:1035E00001900091FFE70748FEF718FD002801D081
:1035F000FFE7F8E701A801780248FEF779FD019896
:1036000002B080BD0080104080B584B0024602A8A0
:1036100002700191007800F0E3FD0090009800280E
:1036200004D1FFE703A9FF20087007E00098019983
:10363000FEF703F903A900200870FFE7002103A8A3
:10364000405604B080BD80B584B0024602A8027026
:103650000191007800F0C4FD00900098002804D18A
:10366000FFE703A90020087008E000980199FEF721
:1036700065F9411E884103A90870FFE703A8007897
:1036800004B080BD80B584B0024602A802700191EA
:10369000007800F0A5FD00900098002804D1FFE715
:1036A00003A9FF20087007E000980199FEF75EF972
:1036B00003A900200870FFE7002103A8405604B0CA
:1036C00080BD80B584B0024602A8027001910078E6
:1036D00000F086FD00900098002804D1FFE703A9C0
:1036E000FF20087007E000980199FEF74BF903A945
:1036F00000200870FFE7002103A8405604B080BDF9
:1037000080B586B0034604A80370039102A90A702D
:10371000007800F065FD01900198002804D1FFE7D2
:1037200005A9FF20087013E002A80078C007002850
:1037300005D0FFE701980399FEF718F904E0019816
:103740000399FEF77AF8FFE705A900200870FFE764
:10375000002105A8405606B080BD000080B586B0A7
:10376000014604A80170007800F076F9002804D121
:10377000FFE705A9FF20087018E004A80190007871
:10378000C100544802904018042103914056FEF7AE
:10379000D1FF019A029803991278D20080184056FE
:1037A000FEF7F2FF05A900200870FFE7002105A839
:1037B000405606B080BDC04680B584B0014602A820
:1037C0000170007800F048F9002804D1FFE703A950
:1037D0000020087027E001A90020087002A80078E6
:1037E000C1003C484058FEF7E9F901460091022823
:1037F00010D0FFE70098092804D0FFE700980A28B6
:1038000004D00BE001A90120087008E001A9022002
:10381000087004E001A90420087000E0FFE70198A7
:1038200003A90870FFE703A8007804B080BDC04674
:1038300080B584B0034602A803700191009200781D
:1038400000F00AF9002804D1FFE703A9FF2008705F
:103850001BE002A80078C1001E4840184079C0074C
:10386000002804D1FFE703A9FA2008700DE002A8A0
:103870000078C10017484058009901AA1278FEF755
:103880003BFB03A900200870FFE7002103A8405676
:1038900004B080BD80B582B00146684601700078F2
:1038A00000F0DAF8002804D1FFE701A9FF20087032
:1038B0000AE068460078C10006484058FEF74EFB13
:1038C00001A900200870FFE7002101A8405602B0BE
:1038D00080BDC046C46F000080B584B0014602A818
:1038E0000170007800F0C8F8002804D1FFE703A9B0
:1038F000FF20087011E002A80090017809480190AB
:103900004056FEF72BFF0099019809784056FEF7C4
:103910004FFF03A900200870FFE7002103A84056CD
:1039200004B080BDF86F000080B584B0014602A8E5
:103930000170007801F012FC01900198002804D178
:10394000FFE703A90020087011E00198FEF738FB9B
:1039500001466846017000780B2804D1FFE703A9EF
:103960000120087003E003A900200870FFE703A806
:10397000007804B080BD80B584B0024602A8027011
:103980000191007801F0EAFB00900098002804D132
:10399000FFE703A9FF20087010E00198002804D178
:1039A000FFE703A9FF20087008E00098FEF74CFB32
:1039B0000199087003A900200870FFE7002103A8FF
:1039C000405604B080BD000080B586B0024604A811
:1039D000027003AA1170007801F0C0FB02900298F7
:1039E000002804D1FFE705A9FF2008701DE0114859
:1039F0000190FFE70298FEF71BFB00280CD0FFE7C1
:103A00000198002804D1FFE705A9FD2008700CE00B
:103A10000198401E0190EDE7029803A90978FEF78E
:103A200072FB05A900200870FFE7002105A8405699
:103A300006B080BD1027000083B0014602A80170C7
:103A400001780120002200920229019001D3009800
:103A50000190019803B0704783B0014602A801703D
:103A600001780120002200920629019001D30098DC
:103A70000190019803B0704781B00146684601701B
:103A800000784142484101B0704780B582B00020C3
:103A90000190FEF793FDFEF761FF01F095FDFFE752
:103AA000FEE780B582B001900091009A0199086DFF
:103AB000801808650198006D80087D2806D3FFE70F
:103AC000019900200865FFF7D4FAFFE702B080BD36
:103AD00080B582B0019001990020C86401990873F3
:103AE000FFF73AFD02B080BD70B58CB00B900B981B
:103AF00040688100F74841581D4802F0CDFC002085
:103B00000A90FFE70A9803282CD8FFE70A98014695
:103B1000413109913C214143904842180592405857
:103B2000FCF78AFC02460598069207914068FCF76C
:103B300083FC0246059808920C468068FCF77CFCE2
:103B4000069A079B054608980E4609990396029522
:103B500001940090084802F09FFCFFE70A98401C7F
:103B60000A90CFE7034802F097FC0CB070BDC04646
:103B7000DC7000007C7100003A71000080B584B0F8
:103B80000290FFE701A8FFF76BFC002853D1FFE785
:103B900001A800780D2805D0FFE701A800780A28C1
:103BA00010D1FFE70298C16C411800200090087303
:103BB000264802F071FC00980299C86403A901200C
:103BC00008703CE001A800787F2805D0FFE701A835
:103BD000007808280ED1FFE70298C06C002808D0B2
:103BE000FFE70299C86C401EC864174802F054FCF5
:103BF000FFE71EE001A80078202819D3FFE701A8FD
:103C000000787E2814D8FFE70298C06C3E280ED8B2
:103C1000FFE701980299CA6C891808730299C86C69
:103C2000401CC86401A80078FFF77CFCFFE7FFE7B1
:103C3000FFE7FFE7A6E703A900200870FFE703A856
:103C4000007804B080BDC046F96F0000B671000076
:103C500080B586B0059005985421405CC0070028C7
:103C600008D0FFE70598FFF73FFF05995422002091
:103C70008854FFE70598FFF781FF002809D1FFE787
:103C80006420039000F053FA03990598FFF709FFA9
:103C900061E00598017B04A801700078613802900A
:103CA00003284BD80298810001A040588746C0469F
:103CB000C13C0000CF3C0000E73C0000FF3C00009E
:103CC000059901200870294802F0E6FB37E00599C4
:103CD00002200870059840688100EA48415822484F
:103CE00002F0DAFB2BE00599032008700598406884
:103CF0008100E44841581B4802F0CEFB1FE00599C3
:103D000004200870059841683C224A43F04989180C
:103D100001918068FCF765FB01460198FFF709F8FF
:103D200005984268E9490120885405984068810057
:103D3000D44841580A4802F0AFFB00E0FFE705987D
:103D4000FFF7C6FE6420009000F0F1F90099059895
:103D5000FFF7A7FEFFE706B080BDC046580520204C
:103D60009F700000287000007E70000060700000EE
:103D700080B584B003900398FFF700FF002809D1B5
:103D8000FFE76420019000F0D2F901990398FFF752
:103D900088FE3FE00398017B02A80170007871283B
:103DA00008D1FFE7039900200870039954220120ED
:103DB000885423E002A8007861281ADBFFE702A8F4
:103DC0000078642815DCFFE702A8007861380399C1
:103DD0004860039840688100AA4841580F4802F0A3
:103DE0005BFB03990020087003995422012088543A
:103DF00003E0094802F050FBFFE7FFE70398FFF7F5
:103E000067FE6420009000F092F900990398FFF794
:103E100048FEFFE704B080BD9F71000020710000E4
:103E200080B588B0079006A8FFF71AFB002825D1B7
:103E3000FFE706A8007871281FD1FFE707984068C0
:103E400000F024F90798406881008E4841582248C4
:103E500002F022FB079900200870079954220120E4
:103E600088540798FFF734FE0A20039000F05FF9AA
:103E700003990798FFF715FE26E0FFE70020029060
:103E8000059000F027F902980490FFE704980028B5
:103E90000DD1FFE70798406881000D484058059014
:103EA000FFE700F01BF90498401C0490EEE7059929
:103EB000064802F0F1FA0A20019000F038F9019961
:103EC0000798FFF7EEFDFFE708B080BD34710000F2
:103ED000FC0420200C0020200D71000080B586B06D
:103EE00005900598FFF74AFE002809D1FFE76420F6
:103EF000029000F01CF902990598FFF7D2FD3DE011
:103F00000598017B04A801700078712808D1FFE7AB
:103F1000059900200870059954220120885421E059
:103F200005980C30FCF760F903900398002804D141
:103F3000FFE7144802F0B0FA13E00398059988608F
:103F40000598406881004F484158039A0C4802F098
:103F5000A3FA05990020087005995422012088547D
:103F6000FFE7FFE70598FFF7B3FD6420019000F03D
:103F7000DEF801990598FFF794FDFFE706B080BDD4
:103F8000F2700000FD6F000070B590B00F900F98B8
:103F9000FFF7F4FD002809D1FFE76420099000F045
:103FA000C6F809990F98FFF77CFD65E00F98017B33
:103FB0000EA801700078712808D1FFE70F99002042
:103FC00008700F9954220120885449E000200D9078
:103FD0000C900B900F980C300BA9009127490DAA5B
:103FE0000CABFCF7E3F80A900A98032833D1FFE7FB
:103FF0000F9840683C214143764840180B9B0C9A2F
:104000000D99FEF785FE0F98406881001D484058C5
:1040100008900D98FCF710FA059006910C98FCF7A3
:104020000BFA07900C460B98FCF706FA059A069BCC
:10403000054607980E46089903960295019400904C
:10404000114802F029FA0F99002008700F995422A4
:104050000120885403E00A4802F01EFAFFE7FFE758
:104060000F98FFF735FD6420049000F060F8049984
:104070000F98FFF716FDFFE710B070BDC17100008B
:104080000C7000000C0020205871000080B584B036
:104090000390039A0D4900200090885403A80078EB
:1040A0000121FFF731F9009903983C220192424324
:1040B000484802908018FEF73CFE01990298039A46
:1040C00051434018FEF705FE04B080BD5005202086
:1040D0005805202080B501F023F980BD80B501F09E
:1040E00029F980BDB0B58AB00292024602980E9CB2
:1040F0000892079106AA1080059300200490089862
:1041000007991288059B0E9C04AD0195009401F05F
:10411000A7FE03900398012803D0FFE70020099031
:1041200002E004980990FFE709980AB0B0BD80B595
:1041300082B00190019A7D20C10008465043FCF7EF
:104140008FF901F0D1F902B080BD000010B58CB03C
:10415000FEF7E6FFFCF750F90B9000200A90FFE70E
:104160000A98032834D8FFE70A983C210391414379
:104170001848049040180B9B0122D4070594194657
:1041800061400293009201911349144A0023FEF703
:1041900074FD039A049805990A9B5A438018099064
:1041A0000B98079048403F2109060691FCF782F8DA
:1041B0000699024607980892FCF77CF8089902468F
:1041C0000998FEF799FDFFE70A98401C0A90C7E797
:1041D0000CB010BD58052020CDCC4C3F9A99993E8B
:1041E00080B582B00146684601700078FFF724FC74
:1041F000002803D1FFE70020019006E06846007820
:104200008100034840580190FFE7019802B080BD4B
:10421000486F000080B584B0039002912348006885
:10422000009059480068001D00F0B6FF002801D139
:10423000FFE700E0FFE70398401C00280BD1FFE7F1
:104240000298002807D0FFE74F480068011D1B486F
:1042500001F049F828E0009803994018019001986E
:1042600049490968486001980099884208D2FFE7E7
:104270001148006844490968091D00F0FEFF12E07A
:104280000B48006840490968091D00F0F6FF0198D5
:1042900008490968884204D2FFE701980549086087
:1042A00000E0FFE7FFE7FFE704B080BD70342020A7
:1042B00024042020143420202C04202048342020E2
:1042C00080B582B0019001F02BF861490868401C6C
:1042D00008602D48006800280DD1FFE701982A49A1
:1042E00008605B480068012803D1FFE700F08CFA02
:1042F00000E0FFE714E02548006800280ED1FFE742
:1043000021480068C06A0199C96A884204D8FFE759
:1043100001981D49086000E0FFE700E0FFE7FFE7C4
:104320001B480168491C01600068019908640198F4
:10433000C06A18490968884205D9FFE70198C06A30
:1043400014490860FFE70199C86A142242431248E1
:104350008018091D00F0C7FF00F0ECFF0B48006853
:1043600000280DD0FFE708480068C06A0199C96AB3
:10437000884203D2FFE701F075F800E0FFE700E0B4
:10438000FFE702B080BDC0461C0420203C34202042
:10439000EC2E2020F02E20203404202080B584B084
:1043A00000F0BEFF11480068002819D1FFE710484F
:1043B000029000F045FF0F48039000F041FF029982
:1043C00003988B4A11600C490860002000900B4A4A
:1043D0000B4B14200C2101F0F1F90449086000E0B6
:1043E000FFE700F0A7FF04B080BDC0467434202072
:1043F000B4332020C833202030042020D8022020CD
:10440000C803202080B582B0FFE70F48006800286D
:1044100018D0FFE700F084FF0C48C068C068019026
:104420000198001D00F0B8FE09490868401E0860A8
:1044300005490868401E086000F07CFF019800F004
:1044400095F8E2E702B080BDE42E20205C34202005
:10445000E02E202080B582B0019000910198006C80
:10446000002817D0FFE701990A6CC8688018C86057
:104470000199C8688968884204D3FFE701990868F0
:10448000C86000E0FFE70098019AD168126CFBF762
:1044900069FEFFE702B080BD80B586B0059004914B
:1044A0000392002002900598806B01900598006CA3
:1044B000002810D1FFE705980068002809D1FFE720
:1044C0000598806801F022FE02900599002088601E
:1044D00000E0FFE743E00398002817D1FFE7059AC3
:1044E00050680499126CFBF73DFE05990A6C486808
:1044F00080184860059948688968884204D3FFE7B6
:1045000005990868486000E0FFE727E0059AD06851
:104510000499126CFBF726FE05990A6CC868801A8C
:10452000C8600599C8680968884206D2FFE70599FE
:1045300088680A6C801AC86000E0FFE703980228C8
:104540000AD1FFE70198002804D0FFE70198401E38
:10455000019000E0FFE700E0FFE7FFE7FFE70198D9
:10456000401C05998863029806B080BD80B582B072
:10457000019001985D21405C002808D1FFE7019877
:10458000006B00F0EDFE019800F0EAFE14E00198E7
:104590005D21405C012804D1FFE7019800F0E0FEB6
:1045A00009E001985D21405C022803D0FFE772B664
:1045B000FFE7FEE7FFE7FFE702B080BD82B00190B2
:1045C0000B48006800684142484101990860019821
:1045D0000068002806D1FFE7F8480068C068006856
:1045E000009002E000200090FFE7009802B07047C2
:1045F0002004202084B00520C002009023480190B0
:1046000001A80078400700280ED0FFE70198C01DE0
:1046100001900198072188430190019A1B49009855
:10462000891A40180090FFE7019802900299C24849
:104630000160002141600298009A80180190019861
:104640000838019001980722D24310400190019A46
:10465000BA480260026851600268116002990391D1
:104660000199039A891A51600068039908600398B8
:104670004068074908600398406806490860064991
:104680000120C007086004B07047C046E006202043
:104690001034202008342020DC33202080B582B064
:1046A0000190FFE7FFF7AEFEFCE710B584B0069C73
:1046B000039002910192684603700298002803D18A
:1046C000FFE70698006003E0019806990860FFE79D
:1046D00003980699C8630298069908640698012110
:1046E00001F0CCF8009806994C22885404B010BD13
:1046F00010B588B00D9C0C9C0B9C0A9C07900691F1
:10470000059204930C98006B05998900A522FBF78C
:104710003BFD0C98016B059880004018001F03902A
:10472000039807218843039003A8007840070028D6
:1047300003D0FFE772B6FFE7FEE70698002820D017
:10474000FFE700200290FFE702980B2814D8FFE74C
:104750000698029A805C0C9989183422885406982D
:104760000299405C002801D1FFE705E0FFE7FFE781
:104770000298401C0290E7E70C993F2200208854E1
:1047800004E00C99342200208854FFE70A980A2894
:1047900003D3FFE709200A9000E0FFE70A980C998D
:1047A000C8620A980C9988640C9900200190C8642A
:1047B0000C98001D00F05AFD0C98183000F056FDC2
:1047C00001980C9909610A9A0A21891A0C9A916137
:1047D0000C9949620C99486508650C9988650C9993
:1047E0005C22885403980799049A00F02FFC0C99D6
:1047F00008600B98002804D0FFE70C980B9908601C
:1048000000E0FFE708B010BD80B584B00020039041
:10481000FFE7039809280CD8FFE7039814214143C8
:104820001748401800F00CFDFFE70398401C039068
:10483000EFE70C48019000F003FD0B48029000F0F8
:10484000FFFC0A4800F0FCFC094800F0F9FC0948AC
:1048500000F0F6FC01990298074A116007490860C8
:1048600004B080BDE0332020F43320202834202001
:104870005C34202048342020240420202C042020D4
:104880003404202083B002902B480190FFE7019868
:1048900000680299884205D2FFE7FFE701980068A7
:1048A0000190F4E701980090009801994968401838
:1048B0000299884209D1FFE7029842680199486845
:1048C000801848600198029000E0FFE7029800908D
:1048D00000980299496840180199096888421AD1DC
:1048E000FFE7019800681549096888420DD0FFE785
:1048F00001980068426802994868801848600198E9
:10490000006800680299086004E00C480068029999
:104910000860FFE704E00198006802990860FFE77B
:1049200001980299884204D0FFE702980199086033
:1049300000E0FFE703B07047403420202804202027
:1049400080B586B0059004910392029300200190F7
:104950000498059948600598006104980399884275
:1049600013D8FFE703980299401A0599896988428C
:1049700003D3FFE70120019006E0BA4800680599DB
:10498000091D00F07AFCFFE714E0039802998842C1
:1049900008D2FFE704980299884203D3FFE7012079
:1049A000019006E0F64800680599091D00F065FCD5
:1049B000FFE7FFE7019806B080BDC0462004202035
:1049C00080B582B0019000F0ABFC0198806B0028AC
:1049D00003D1FFE70120009002E000200090FFE7F4
:1049E00000F0A8FC009802B080BD80B582B00190B4
:1049F00000F096FC0198806B0199C96B884203D145
:104A0000FFE70120009002E000200090FFE700F0A7
:104A100091FC009802B080BD80B586B005900491ED
:104A2000D7480068C068C06802900298001D00F076
:104A3000B3FB02982821405C400700281CD5FFE703
:104A40000298059B81695918049AFFF779FF00289D
:104A500010D0FFE70298059A00230093194601F051
:104A6000D3FC03900398002803D1FFE772B6FFE759
:104A7000FEE700E0FFE706E002992822885CFE23BB
:104A800018408854FFE70298016A884706B080BD45
:104A900080B58AB0FFE77448006807A9002201F0DA
:104AA000B6F8002800D199E00798002800D594E0D6
:104AB0000998069006984069002805D0FFE70698F7
:104AC000001D00F069FB00E0FFE705A800F0E6F834
:104AD000039007980290092800D97CE00298810091
:104AE00001A040588746C046114B0000114B000002
:104AF000114B0000714B00007F4B0000B14B0000D8
:104B0000114B0000114B0000714B00007F4B000067
:104B100006992822885C0123184388540698089B2C
:104B200081695918039AFFF70BFF00281ED0FFE791
:104B30000698016A884706982821405C40070028AB
:104B400012D5FFE70698089982698A180023009316
:104B5000194601F059FC04900498002803D1FFE79E
:104B600072B6FFE7FEE700E0FFE700E0FFE733E0B3
:104B700006992822885CFE23184088542CE0069968
:104B80002822885C01231843885408980699886174
:104B900006988069002803D1FFE772B6FFE7FEE7B9
:104BA0000698039B816959181A46FFF7C9FE13E05E
:104BB00006982821405C8007002804D4FFE7069867
:104BC00000F0CEFB06E006992822885CFE23184000
:104BD0008854FFE700E0FFE7FFE75CE70AB080BD2D
:104BE00080B584B00390029100F04CFD684600F05F
:104BF00055F80190009800282ED1FFE70298002870
:104C00000CD1FFE703980199884207D8FFE701F02C
:104C100025FB03980199FFF7FFFE1CE0029800288E
:104C200007D0FFE7574800680068414248410290BA
:104C3000FFE70D4800680399019A891A029A00F06B
:104C40001DFC01F00BFB002803D1FFE700F00AFC7C
:104C500000E0FFE7FFE702E001F000FBFFE704B040
:104C600080BDC046300420207434202009480068EC
:104C70000068002805D1FFE707490020C04308600D
:104C800006E004480068C068006803490860FFE760
:104C90007047C046240420201434202080B582B000
:104CA000019001F08BF9009000980A490968884248
:104CB00006D2FFE700F010F801990120086003E038
:104CC000019900200860FFE70098024908600098F9
:104CD00002B080BD1804202080B586B0FFE72848C8
:104CE00000680068002840D0FFE725480168C968CF
:104CF000096805910068C068C06802900298001DAC
:104D000000F04AFA0298016A884702982821405C1C
:104D10004007002827D5FFE70598029989694018C0
:104D200004900498059988420CD9FFE704980299E9
:104D3000486002980061124800680299091D00F05D
:104D40009CFA0FE00298059A00230093194601F09F
:104D50005BFB01900198002803D1FFE772B6FFE7E3
:104D6000FEE7FFE700E0FFE7B9E7054A10680390B8
:104D70000449086810600398086006B080BDC0460A
:104D8000200420203004202081B000200090094819
:104D90000068401C002803D0FFE772B6FFE7FEE77B
:104DA00072B6FFE70098002801D1FFE7FAE701B0EB
:104DB0007047C0461C00202080B584B00390FFE7F8
:104DC00001A8FFF7FBFB029002980199FFF708FF8B
:104DD000FFF75EFEF4E780B584B0039000F0A0FA20
:104DE00003984521405C02A90870FFE7002102A852
:104DF0004056012817DBFFE70398406A00280CD0D3
:104E0000FFE70398243001F0DDF9002803D0FFE725
:104E100000F09EFB00E0FFE700E004E00298401E87
:104E200002A90870E2E703994522FF20885400F0A8
:104E300081FA00F075FA03984421405C01A90870DA
:104E4000FFE7002101A84056012817DBFFE7039880
:104E50000069002810D0FFE70398103001F0B2F984
:104E6000002803D0FFE700F073FB00E0FFE70198A4
:104E7000401E01A9087000E000E0E2E70399442227
:104E8000FF20885400F056FA04B080BD80B586B08B
:104E900005900020019000F0F5FB664800680028AE
:104EA00003D1FFE7FFF7A6FB00E0FFE705986249A3
:104EB0000968084200D0AEE0059800282CD0FFE732
:104EC000059908460830884226D9FFE7059808303A
:104ED000059005A80078400700281BD0FFE705993A
:104EE000072208469043083088420FD9FFE705980B
:104EF000072188430830059005A80078400700285E
:104F000003D0FFE772B6FFE7FEE702E0002005905E
:104F1000FFE700E0FFE702E000200590FFE70598CB
:104F2000002876D0FFE7059844490968884270D880
:104F3000FFE74348039000680490FFE70498416846
:104F4000059A00209142009006D2FFE7049800687D
:104F5000411E88410090FFE70098C007002806D056
:104F6000FFE704980390049800680490E6E704982B
:104F70003049096888424AD0FFE703980068083042
:104F800001900498006803990860049840680599A6
:104F9000401A11281AD3FFE7049805994018029087
:104FA00002A800784007002803D0FFE772B6FFE7A9
:104FB000FEE7049840680599401A029948600598F0
:104FC000049948600298FFF75DFC00E0FFE7049851
:104FD00042681A480168891A01600068194909681D
:104FE000884205D2FFE7154800681649086000E0CE
:104FF000FFE7114802680499486810434860049923
:105000000020086010490868401C086000E0FFE7C5
:1050100000E0FFE700E0FFE701F020F901A80078D9
:105020004007002803D0FFE772B6FFE7FEE70198CC
:1050300006B080BD28042020DC3320200834202046
:1050400040342020103420201C34202083B00290D3
:10505000019100920298001F02900299012000061F
:1050600008600298001F0290019802990860029857
:10507000001F0290029907480860029814380290B5
:10508000009802990860029820380290029803B0B4
:105090007047C046894D000080B582B001A90870F4
:1050A0002D4800680A781821514340180090009953
:1050B00008798968FEF7E6FA0099087B0969FEF726
:1050C000E1FA02B080BDC04680B582B001A9087087
:1050D000214800680A78182151434018009000992F
:1050E00008798968FEF790FA0099087B0969FEF74C
:1050F0008BFA02B080BDC04680B582B001A90870AD
:10510000154800680A78182151434018009000990A
:1051100008798968FEF7B6FA0099087B0969FEF7F5
:1051200073FA02B080BDC04680B582B001A9087094
:10513000094800680A7818215143401800900099E6
:1051400008798968FEF760FA0099087B0969FEF71B
:1051500099FA02B080BDC0464805202080B582B0D3
:105160000146684601700078FEF786FC002803D1EE
:10517000FFE70020019006E06846007881000348C0
:1051800040580190FFE7019802B080BDF46F000025
:10519000EFF3108072B6704782B0019001980069F9
:1051A0000090019988684968886001994868896811
:1051B0004860009840680199884205D1FFE701984E
:1051C00080680099486000E0FFE7019900200861CD
:1051D00000990868401E08600098006802B0704797
:1051E00083B00290019100920299054808600199EC
:1051F0000448086000998020086003B07047C046EA
:10520000F4302020F42E202083B0029001910092EF
:1052100002990548086001990448086000998020B7
:10522000086003B07047C04654332020543120201A
:1052300082B001900091FFE7FEE780F3108870478D
:1052400081B000900099084608304860009A00201C
:10525000C1439160009A11460831D160009A11460D
:10526000083111610099086001B0704781B0009069
:1052700000990020086101B0704784B0039002914A
:105280000298006800900098401C002804D1FFE7B5
:1052900003980069019010E0039808300190FFE73F
:1052A0000198406800680099884205D8FFE7FFE749
:1052B000019840680190F3E7FFE701984068029980
:1052C0004860029841688860019802998860029855
:1052D0000199486003980299086103990868401C85
:1052E000086004B0704783B0029001910298406852
:1052F0000090009801994860009880680199886042
:10530000019800998968486001980099886002981E
:105310000199086102990868401C086003B0704751
:1053200072B60E490868401C0860BFF34F8FBFF388
:105330006F8F704709480068002803D1FFE772B6F5
:10534000FFE7FEE705480168491E01600068002884
:1053500002D1FFE762B6FFE77047C0461C0020207D
:1053600080B584B0039003980290039800283FD042
:10537000FFE702980838029002980190019840686F
:105380001C490968084203D1FFE772B6FFE7FEE750
:1053900001980068002803D0FFE772B6FFE7FEE738
:1053A000019840681349096808421FD0FFE7019837
:1053B0000068002818D1FFE70E4802680199486884
:1053C0009043486000F05EF9019842680A49086815
:1053D000801808600198FFF755FA08490868401CD2
:1053E000086000F03BFF00E0FFE700E0FFE7FFE7B9
:1053F00004B080BDDC33202008342020203420205D
:10540000054900200860054A1060054A05481060FB
:10541000072008607047C04610E000E018E000E098
:1054200014E000E07F3801000000000000000000F0
:105430000B4A13681868203080F30988022080F333
:105440001488BFF36F8F3FBCAE4608BC04BC62B685
:105450001847C046C046C046C046C046C046C046C3
:105460001C0420200120000703490860BFF34F8F70
:10547000BFF36F8F7047C04604ED00E080B584B085
:1054800003900291019203980090FFF749FF009862
:1054900044214056401C002805D1FFE700994422D2
:1054A00000208854FFE7009845214056401C002802
:1054B00005D1FFE70099452200208854FFE7FFF758
:1054C00039FF0098806B002807D1FFE7009824304F
:1054D0000299019A00F058F800E0FFE70098FFF702
:1054E0007AFC04B080BD000080B582B0019000203D
:1054F00000900198002812D0FFE79A480068002821
:1055000003D0FFE772B6FFE7FEE700F0BBF80198B3
:105510000021FEF77FFE00F0A1FE009000E0FFE713
:105520000098002803D1FFE7FFF79CFF00E0FFE7AA
:1055300002B080BD81B00090044800680099086006
:105540004E4800680099486001B070471834202028
:10555000854901200860704780B582B001900091B4
:105560000198002803D1FFE772B6FFE7FEE7019834
:105570007E4909681831FFF780FE00980121FEF787
:1055800049FE02B080BDC04680B584B00390029150
:1055900001920398002803D1FFE772B6FFE7FEE708
:1055A0000398724909681831FFF79DFE0198002899
:1055B00004D0FFE70020C0430290FFE70298019962
:1055C000FEF728FE04B080BD80B588B000200390AF
:1055D0000690059006A805A904AAFFF701FE039B03
:1055E000049A059806990291019000931E481F495C
:1055F00000F07FFC01461E4801600068002803D0CF
:10560000FFE70120079002E000200790FFE70798DE
:10561000012804D1FFE700F0BBFE079000E0FFE7A0
:105620000798012812D1FFE772B6124A0020C14341
:105630001160114A012111601049086000F09EF8C4
:10564000002801D0FFE700E0FFE708E00798401CD2
:10565000002803D1FFE772B6FFE7FEE7FFE708483F
:10566000006808B080BDC0469D460000D4710000AF
:105670000C342020143420203C342020703420208E
:10568000E471000037490868401C08607047C04654
:1056900080B584B033480068002804D0FFE7324961
:1056A000012008605BE03049002008602F48006856
:1056B000006B03902E49029103980068884212D132
:1056C000FFE7039840682A4988420CD1FFE7039816
:1056D00080682749884206D1FFE70398C0682449BB
:1056E000884207D0FFE72149086809683431FFF78D
:1056F0009FFDFFE71F4800680190FFE70198142114
:1057000041431D48405800280BD1FFE7019800286D
:1057100003D1FFE772B6FFE7FEE70198401E019054
:10572000ECE7019814214143134840180090009978
:10573000486840684860009948680831884205D147
:10574000FFE70099486840684860FFE700984068B4
:10575000C06806490860019806490860FFE704B080
:1057600080BDC046E82E20207C3420201C04202050
:10577000A5A5A5A5F02E20203404202080B582B058
:105780000C490868FF2213041843086008681206D1
:1057900010430860FFF734FE0749002001900860BD
:1057A000FFF746FEFFF774FFFFF7EEFA019802B02D
:1057B00080BDC04620ED00E01C00202010B58AB05E
:1057C00004460C98099408910792069305A908705D
:1057D0000998002803D1FFE772B6FFE7FEE70698B5
:1057E000002803D1FFE772B6FFE7FEE70799002024
:1057F0000029029005D0FFE70898414248410290F5
:10580000FFE70298C007002803D0FFE772B6FFE762
:10581000FEE7079900200029019005D1FFE70898CD
:10582000411E88410190FFE70198C007002803D07E
:10583000FFE772B6FFE7FEE7502003900398502879
:1058400003D0FFE772B6FFE7FEE7039806980490DF
:10585000049800280ED0FFE70499462201208854BE
:1058600009980899079A05AB1B78049C0094FEF7E9
:105870001CFF00E0FFE704980AB010BD80B584B0BB
:1058800003900291039801900198002803D1FFE74B
:1058900072B6FFE7FEE7FFF743FD01990868CB6B9F
:1058A0000A6C5A4380188860019900208863019926
:1058B0000868486001990868CA6B531E0A6C5A430D
:1058C0008018C86001994422FF208854019945221C
:1058D00088540298002813D1FFE701980069002836
:1058E0000CD0FFE70198103000F06CFC002803D0CA
:1058F000FFE7FFF7B7FD00E0FFE700E0FFE708E0A4
:1059000001981030FFF79CFC01982430FFF798FCB9
:10591000FFE7FFF70FFD012004B080BD80B58EB01A
:105920000C900B910A920993002008900C98049017
:105930000498002803D1FFE772B6FFE7FEE70B9952
:1059400000200029039006D1FFE70498006C411E57
:1059500088410390FFE70398C007002803D0FFE7C2
:1059600072B6FFE7FEE7099900200229029007D1ED
:10597000FFE70498C06B401E411E88410290FFE77C
:105980000298C007002803D0FFE772B6FFE7FEE7E2
:1059900000F0FAFA014600200029019005D1FFE746
:1059A0000A98411E88410190FFE70198C00700282E
:1059B00003D0FFE772B6FFE7FEE7FFE7FFF7B0FCB3
:1059C0000498806B0499C96B884204D3FFE7099857
:1059D000022825D1FFE704980B99099AFEF75CFD90
:1059E00007900498406A00280CD0FFE70498243000
:1059F00000F0E8FB002803D0FFE7FFF733FD00E0ED
:105A0000FFE708E00798002803D0FFE7FFF72AFD2B
:105A100000E0FFE7FFE7FFF78DFC01200D9063E05A
:105A20000A98002805D1FFE7FFF784FC00200D90BD
:105A30005AE00898002806D1FFE705A8FFF77AFD8D
:105A40000120089000E0FFE7FFE7FFE7FFF772FCA7
:105A5000FFF718FEFFF764FC049844214056401CF1
:105A6000002805D1FFE70499442200208854FFE76D
:105A7000049845214056401C002805D1FFE70499B1
:105A8000452200208854FFE7FFF754FC05A80AA927
:105A900000F090F900281ED1FFE70498FEF7A5FF5B
:105AA000002811D0FFE7049810300A99FFF754FD41
:105AB0000498FFF790F900F0D1FB002803D1FFE72D
:105AC000FFF7D0FCFFE705E00498FFF784F900F04A
:105AD000C5FBFFE707E00498FFF77DF900F0BEFB88
